{
  "_format": "hh-sol-artifact-1",
  "contractName": "BloomGameStaking",
  "sourceName": "contracts/BloomGameStaking.sol",
  "abi": [
    {
      "inputs": [],
      "stateMutability": "nonpayable",
      "type": "constructor"
    },
    {
      "anonymous": false,
      "inputs": [
        {
          "indexed": true,
          "internalType": "address",
          "name": "previousOwner",
          "type": "address"
        },
        {
          "indexed": true,
          "internalType": "address",
          "name": "newOwner",
          "type": "address"
        }
      ],
      "name": "OwnershipTransferred",
      "type": "event"
    },
    {
      "inputs": [
        {
          "internalType": "uint256",
          "name": "_cid",
          "type": "uint256"
        }
      ],
      "name": "getNftInfo",
      "outputs": [
        {
          "internalType": "bool",
          "name": "",
          "type": "bool"
        },
        {
          "internalType": "address",
          "name": "",
          "type": "address"
        },
        {
          "internalType": "uint256",
          "name": "",
          "type": "uint256"
        },
        {
          "internalType": "uint256",
          "name": "",
          "type": "uint256"
        },
        {
          "internalType": "uint256",
          "name": "",
          "type": "uint256"
        }
      ],
      "stateMutability": "view",
      "type": "function"
    },
    {
      "inputs": [
        {
          "internalType": "address",
          "name": "_user",
          "type": "address"
        },
        {
          "internalType": "address",
          "name": "_collection",
          "type": "address"
        }
      ],
      "name": "getUserInfo",
      "outputs": [
        {
          "internalType": "uint256[]",
          "name": "",
          "type": "uint256[]"
        },
        {
          "internalType": "uint256",
          "name": "",
          "type": "uint256"
        },
        {
          "internalType": "uint256",
          "name": "",
          "type": "uint256"
        }
      ],
      "stateMutability": "view",
      "type": "function"
    },
    {
      "inputs": [
        {
          "internalType": "uint256",
          "name": "",
          "type": "uint256"
        }
      ],
      "name": "nftCollection",
      "outputs": [
        {
          "internalType": "bool",
          "name": "isStakable",
          "type": "bool"
        },
        {
          "internalType": "address",
          "name": "nftAddress",
          "type": "address"
        },
        {
          "internalType": "uint256",
          "name": "stakingFee",
          "type": "uint256"
        },
        {
          "internalType": "uint256",
          "name": "amountOfStakers",
          "type": "uint256"
        },
        {
          "internalType": "uint256",
          "name": "stakingLimit",
          "type": "uint256"
        }
      ],
      "stateMutability": "view",
      "type": "function"
    },
    {
      "inputs": [],
      "name": "owner",
      "outputs": [
        {
          "internalType": "address",
          "name": "",
          "type": "address"
        }
      ],
      "stateMutability": "view",
      "type": "function"
    },
    {
      "inputs": [],
      "name": "renounceOwnership",
      "outputs": [],
      "stateMutability": "nonpayable",
      "type": "function"
    },
    {
      "inputs": [
        {
          "internalType": "bool",
          "name": "_isStakable",
          "type": "bool"
        },
        {
          "internalType": "address",
          "name": "_nftAddress",
          "type": "address"
        },
        {
          "internalType": "uint256",
          "name": "_stakingFee",
          "type": "uint256"
        },
        {
          "internalType": "uint256",
          "name": "_stakingLimit",
          "type": "uint256"
        }
      ],
      "name": "setNftInfo",
      "outputs": [],
      "stateMutability": "nonpayable",
      "type": "function"
    },
    {
      "inputs": [
        {
          "internalType": "uint256",
          "name": "_cid",
          "type": "uint256"
        },
        {
          "internalType": "bool",
          "name": "_isStakable",
          "type": "bool"
        }
      ],
      "name": "setStakeStatues",
      "outputs": [],
      "stateMutability": "nonpayable",
      "type": "function"
    },
    {
      "inputs": [
        {
          "internalType": "uint256",
          "name": "_cid",
          "type": "uint256"
        },
        {
          "internalType": "uint256",
          "name": "_id",
          "type": "uint256"
        }
      ],
      "name": "stake",
      "outputs": [],
      "stateMutability": "payable",
      "type": "function"
    },
    {
      "inputs": [
        {
          "internalType": "address",
          "name": "",
          "type": "address"
        },
        {
          "internalType": "uint256",
          "name": "",
          "type": "uint256"
        }
      ],
      "name": "tokenOwners",
      "outputs": [
        {
          "internalType": "address",
          "name": "",
          "type": "address"
        }
      ],
      "stateMutability": "view",
      "type": "function"
    },
    {
      "inputs": [
        {
          "internalType": "address",
          "name": "newOwner",
          "type": "address"
        }
      ],
      "name": "transferOwnership",
      "outputs": [],
      "stateMutability": "nonpayable",
      "type": "function"
    },
    {
      "inputs": [
        {
          "internalType": "uint256",
          "name": "_cid",
          "type": "uint256"
        },
        {
          "internalType": "uint256",
          "name": "_id",
          "type": "uint256"
        }
      ],
      "name": "unstake",
      "outputs": [],
      "stateMutability": "nonpayable",
      "type": "function"
    },
    {
      "inputs": [
        {
          "internalType": "uint256",
          "name": "_cid",
          "type": "uint256"
        },
        {
          "internalType": "bool",
          "name": "_isStakable",
          "type": "bool"
        },
        {
          "internalType": "address",
          "name": "_nftAddress",
          "type": "address"
        },
        {
          "internalType": "uint256",
          "name": "_stakingFee",
          "type": "uint256"
        },
        {
          "internalType": "uint256",
          "name": "_stakingLimit",
          "type": "uint256"
        }
      ],
      "name": "updateNftInfo",
      "outputs": [],
      "stateMutability": "nonpayable",
      "type": "function"
    },
    {
      "inputs": [
        {
          "internalType": "address",
          "name": "",
          "type": "address"
        }
      ],
      "name": "userInfo",
      "outputs": [
        {
          "internalType": "uint256",
          "name": "amountStaked",
          "type": "uint256"
        }
      ],
      "stateMutability": "view",
      "type": "function"
    },
    {
      "inputs": [],
      "name": "withdraw",
      "outputs": [],
      "stateMutability": "nonpayable",
      "type": "function"
    },
    {
      "stateMutability": "payable",
      "type": "receive"
    }
  ],
  "bytecode": "0x608060405234801561001057600080fd5b5061002d61002261003260201b60201c565b61003a60201b60201c565b6100fe565b600033905090565b60008060009054906101000a900473ffffffffffffffffffffffffffffffffffffffff169050816000806101000a81548173ffffffffffffffffffffffffffffffffffffffff021916908373ffffffffffffffffffffffffffffffffffffffff1602179055508173ffffffffffffffffffffffffffffffffffffffff168173ffffffffffffffffffffffffffffffffffffffff167f8be0079c531659141344cd1fd0a4f28419497f9722a3daafe3b4186f6b6457e060405160405180910390a35050565b612231806200010e6000396000f3fe6080604052600436106100e15760003560e01c80638da5cb5b1161007f578063d5ec2d8311610059578063d5ec2d8314610298578063ead25279146102d9578063f2801fe714610302578063f2fde38b14610341576100e8565b80638da5cb5b1461021b5780639e2c8a5b14610246578063a6e562ee1461026f576100e8565b806375acb4ce116100bb57806375acb4ce146101585780637b0472f0146101815780637c711b271461019d5780638b5e51d2146101de576100e8565b80631959a002146100ed5780633ccfd60b1461012a578063715018a614610141576100e8565b366100e857005b600080fd5b3480156100f957600080fd5b50610114600480360381019061010f9190611a50565b61036a565b6040516101219190612007565b60405180910390f35b34801561013657600080fd5b5061013f610388565b005b34801561014d57600080fd5b5061015661044d565b005b34801561016457600080fd5b5061017f600480360381019061017a9190611af1565b6104d5565b005b61019b60048036038101906101969190611c30565b610649565b005b3480156101a957600080fd5b506101c460048036038101906101bf9190611b54565b6106e6565b6040516101d5959493929190611f14565b60405180910390f35b3480156101ea57600080fd5b5061020560048036038101906102009190611ab5565b610759565b6040516102129190611e84565b60405180910390f35b34801561022757600080fd5b5061023061079b565b60405161023d9190611e84565b60405180910390f35b34801561025257600080fd5b5061026d60048036038101906102689190611c30565b6107c4565b005b34801561027b57600080fd5b5061029660048036038101906102919190611bb9565b6107d3565b005b3480156102a457600080fd5b506102bf60048036038101906102ba9190611b54565b610914565b6040516102d0959493929190611f14565b60405180910390f35b3480156102e557600080fd5b5061030060048036038101906102fb9190611b7d565b610a2e565b005b34801561030e57600080fd5b5061032960048036038101906103249190611a79565b610b11565b60405161033893929190611ed6565b60405180910390f35b34801561034d57600080fd5b5061036860048036038101906103639190611a50565b610c41565b005b60016020528060005260406000206000915090508060020154905081565b610390610d39565b73ffffffffffffffffffffffffffffffffffffffff166103ae61079b565b73ffffffffffffffffffffffffffffffffffffffff1614610404576040517f08c379a00000000000000000000000000000000000000000000000000000000081526004016103fb90611fc7565b60405180910390fd5b3373ffffffffffffffffffffffffffffffffffffffff166108fc479081150290604051600060405180830381858888f1935050505015801561044a573d6000803e3d6000fd5b50565b610455610d39565b73ffffffffffffffffffffffffffffffffffffffff1661047361079b565b73ffffffffffffffffffffffffffffffffffffffff16146104c9576040517f08c379a00000000000000000000000000000000000000000000000000000000081526004016104c090611fc7565b60405180910390fd5b6104d36000610d41565b565b6104dd610d39565b73ffffffffffffffffffffffffffffffffffffffff166104fb61079b565b73ffffffffffffffffffffffffffffffffffffffff1614610551576040517f08c379a000000000000000000000000000000000000000000000000000000000815260040161054890611fc7565b60405180910390fd5b60036040518060a0016040528086151581526020018573ffffffffffffffffffffffffffffffffffffffff1681526020018481526020016000815260200183815250908060018154018082558091505060019003906000526020600020906004020160009091909190915060008201518160000160006101000a81548160ff02191690831515021790555060208201518160000160016101000a81548173ffffffffffffffffffffffffffffffffffffffff021916908373ffffffffffffffffffffffffffffffffffffffff160217905550604082015181600101556060820151816002015560808201518160030155505050505050565b60038281548110610683577f4e487b7100000000000000000000000000000000000000000000000000000000600052603260045260246000fd5b9060005260206000209060040201600101543410156106d7576040517f08c379a00000000000000000000000000000000000000000000000000000000081526004016106ce90611fe7565b60405180910390fd5b6106e2338383610e05565b5050565b600381815481106106f657600080fd5b90600052602060002090600402016000915090508060000160009054906101000a900460ff16908060000160019054906101000a900473ffffffffffffffffffffffffffffffffffffffff16908060010154908060020154908060030154905085565b60026020528160005260406000206020528060005260406000206000915091509054906101000a900473ffffffffffffffffffffffffffffffffffffffff1681565b60008060009054906101000a900473ffffffffffffffffffffffffffffffffffffffff16905090565b6107cf33838361122f565b5050565b6107db610d39565b73ffffffffffffffffffffffffffffffffffffffff166107f961079b565b73ffffffffffffffffffffffffffffffffffffffff161461084f576040517f08c379a000000000000000000000000000000000000000000000000000000000815260040161084690611fc7565b60405180910390fd5b60006003868154811061088b577f4e487b7100000000000000000000000000000000000000000000000000000000600052603260045260246000fd5b90600052602060002090600402019050848160000160006101000a81548160ff021916908315150217905550838160000160016101000a81548173ffffffffffffffffffffffffffffffffffffffff021916908373ffffffffffffffffffffffffffffffffffffffff160217905550828160010181905550818160030181905550505050505050565b60008060008060008060038781548110610957577f4e487b7100000000000000000000000000000000000000000000000000000000600052603260045260246000fd5b90600052602060002090600402016040518060a00160405290816000820160009054906101000a900460ff161515151581526020016000820160019054906101000a900473ffffffffffffffffffffffffffffffffffffffff1673ffffffffffffffffffffffffffffffffffffffff1673ffffffffffffffffffffffffffffffffffffffff1681526020016001820154815260200160028201548152602001600382015481525050905080600001518160200151826040015183606001518460800151955095509550955095505091939590929450565b610a36610d39565b73ffffffffffffffffffffffffffffffffffffffff16610a5461079b565b73ffffffffffffffffffffffffffffffffffffffff1614610aaa576040517f08c379a0000000000000000000000000000000000000000000000000000000008152600401610aa190611fc7565b60405180910390fd5b8060038381548110610ae5577f4e487b7100000000000000000000000000000000000000000000000000000000600052603260045260246000fd5b906000526020600020906004020160000160006101000a81548160ff0219169083151502179055505050565b60606000806000600160008773ffffffffffffffffffffffffffffffffffffffff1673ffffffffffffffffffffffffffffffffffffffff16815260200190815260200160002090508060000160008673ffffffffffffffffffffffffffffffffffffffff1673ffffffffffffffffffffffffffffffffffffffff1681526020019081526020016000208160010160008773ffffffffffffffffffffffffffffffffffffffff1673ffffffffffffffffffffffffffffffffffffffff16815260200190815260200160002054826002015482805480602002602001604051908101604052809291908181526020018280548015610c2c57602002820191906000526020600020905b815481526020019060010190808311610c18575b50505050509250935093509350509250925092565b610c49610d39565b73ffffffffffffffffffffffffffffffffffffffff16610c6761079b565b73ffffffffffffffffffffffffffffffffffffffff1614610cbd576040517f08c379a0000000000000000000000000000000000000000000000000000000008152600401610cb490611fc7565b60405180910390fd5b600073ffffffffffffffffffffffffffffffffffffffff168173ffffffffffffffffffffffffffffffffffffffff161415610d2d576040517f08c379a0000000000000000000000000000000000000000000000000000000008152600401610d2490611f67565b60405180910390fd5b610d3681610d41565b50565b600033905090565b60008060009054906101000a900473ffffffffffffffffffffffffffffffffffffffff169050816000806101000a81548173ffffffffffffffffffffffffffffffffffffffff021916908373ffffffffffffffffffffffffffffffffffffffff1602179055508173ffffffffffffffffffffffffffffffffffffffff168173ffffffffffffffffffffffffffffffffffffffff167f8be0079c531659141344cd1fd0a4f28419497f9722a3daafe3b4186f6b6457e060405160405180910390a35050565b6000600160008573ffffffffffffffffffffffffffffffffffffffff1673ffffffffffffffffffffffffffffffffffffffff1681526020019081526020016000209050600060038481548110610e84577f4e487b7100000000000000000000000000000000000000000000000000000000600052603260045260246000fd5b9060005260206000209060040201905080600301548260000160008360000160019054906101000a900473ffffffffffffffffffffffffffffffffffffffff1673ffffffffffffffffffffffffffffffffffffffff1673ffffffffffffffffffffffffffffffffffffffff1681526020019081526020016000208054905010610f42576040517f08c379a0000000000000000000000000000000000000000000000000000000008152600401610f3990611fa7565b60405180910390fd5b8060000160019054906101000a900473ffffffffffffffffffffffffffffffffffffffff1673ffffffffffffffffffffffffffffffffffffffff166323b872dd8630866040518463ffffffff1660e01b8152600401610fa393929190611e9f565b600060405180830381600087803b158015610fbd57600080fd5b505af1158015610fd1573d6000803e3d6000fd5b5050505060008260000160008360000160019054906101000a900473ffffffffffffffffffffffffffffffffffffffff1673ffffffffffffffffffffffffffffffffffffffff1673ffffffffffffffffffffffffffffffffffffffff16815260200190815260200160002080549050141561106357600181600201600082825461105b919061206c565b925050819055505b6001826002016000828254611078919061206c565b92505081905550428260010160008360000160019054906101000a900473ffffffffffffffffffffffffffffffffffffffff1673ffffffffffffffffffffffffffffffffffffffff1673ffffffffffffffffffffffffffffffffffffffff168152602001908152602001600020819055508160000160008260000160019054906101000a900473ffffffffffffffffffffffffffffffffffffffff1673ffffffffffffffffffffffffffffffffffffffff1673ffffffffffffffffffffffffffffffffffffffff16815260200190815260200160002083908060018154018082558091505060019003906000526020600020016000909190919091505584600260008360000160019054906101000a900473ffffffffffffffffffffffffffffffffffffffff1673ffffffffffffffffffffffffffffffffffffffff1673ffffffffffffffffffffffffffffffffffffffff168152602001908152602001600020600085815260200190815260200160002060006101000a81548173ffffffffffffffffffffffffffffffffffffffff021916908373ffffffffffffffffffffffffffffffffffffffff1602179055505050505050565b6000600160008573ffffffffffffffffffffffffffffffffffffffff1673ffffffffffffffffffffffffffffffffffffffff16815260200190815260200160002090506000600384815481106112ae577f4e487b7100000000000000000000000000000000000000000000000000000000600052603260045260246000fd5b906000526020600020906004020190508473ffffffffffffffffffffffffffffffffffffffff16600260008360000160019054906101000a900473ffffffffffffffffffffffffffffffffffffffff1673ffffffffffffffffffffffffffffffffffffffff1673ffffffffffffffffffffffffffffffffffffffff168152602001908152602001600020600085815260200190815260200160002060009054906101000a900473ffffffffffffffffffffffffffffffffffffffff1673ffffffffffffffffffffffffffffffffffffffff16146113c0576040517f08c379a00000000000000000000000000000000000000000000000000000000081526004016113b790611f87565b60405180910390fd5b60005b8260000160008360000160019054906101000a900473ffffffffffffffffffffffffffffffffffffffff1673ffffffffffffffffffffffffffffffffffffffff1673ffffffffffffffffffffffffffffffffffffffff1681526020019081526020016000208054905081101561177257838360000160008460000160019054906101000a900473ffffffffffffffffffffffffffffffffffffffff1673ffffffffffffffffffffffffffffffffffffffff1673ffffffffffffffffffffffffffffffffffffffff16815260200190815260200160002082815481106114d1577f4e487b7100000000000000000000000000000000000000000000000000000000600052603260045260246000fd5b9060005260206000200154141561175f578260000160008360000160019054906101000a900473ffffffffffffffffffffffffffffffffffffffff1673ffffffffffffffffffffffffffffffffffffffff1673ffffffffffffffffffffffffffffffffffffffff16815260200190815260200160002060018460000160008560000160019054906101000a900473ffffffffffffffffffffffffffffffffffffffff1673ffffffffffffffffffffffffffffffffffffffff1673ffffffffffffffffffffffffffffffffffffffff168152602001908152602001600020805490506115bc91906120c2565b815481106115f3577f4e487b7100000000000000000000000000000000000000000000000000000000600052603260045260246000fd5b90600052602060002001548360000160008460000160019054906101000a900473ffffffffffffffffffffffffffffffffffffffff1673ffffffffffffffffffffffffffffffffffffffff1673ffffffffffffffffffffffffffffffffffffffff168152602001908152602001600020828154811061169b577f4e487b7100000000000000000000000000000000000000000000000000000000600052603260045260246000fd5b90600052602060002001819055508260000160008360000160019054906101000a900473ffffffffffffffffffffffffffffffffffffffff1673ffffffffffffffffffffffffffffffffffffffff1673ffffffffffffffffffffffffffffffffffffffff168152602001908152602001600020805480611744577f4e487b7100000000000000000000000000000000000000000000000000000000600052603160045260246000fd5b60019003818190600052602060002001600090559055611772565b808061176a9061213e565b9150506113c3565b5060008260000160008360000160019054906101000a900473ffffffffffffffffffffffffffffffffffffffff1673ffffffffffffffffffffffffffffffffffffffff1673ffffffffffffffffffffffffffffffffffffffff1681526020019081526020016000208054905014156118015760018160020160008282546117f991906120c2565b925050819055505b600260008260000160019054906101000a900473ffffffffffffffffffffffffffffffffffffffff1673ffffffffffffffffffffffffffffffffffffffff1673ffffffffffffffffffffffffffffffffffffffff168152602001908152602001600020600084815260200190815260200160002060006101000a81549073ffffffffffffffffffffffffffffffffffffffff0219169055428260010160008360000160019054906101000a900473ffffffffffffffffffffffffffffffffffffffff1673ffffffffffffffffffffffffffffffffffffffff1673ffffffffffffffffffffffffffffffffffffffff16815260200190815260200160002081905550600182600201600082825461191791906120c2565b9250508190555060008260020154141561197757600160008673ffffffffffffffffffffffffffffffffffffffff1673ffffffffffffffffffffffffffffffffffffffff1681526020019081526020016000206000600282016000905550505b8060000160019054906101000a900473ffffffffffffffffffffffffffffffffffffffff1673ffffffffffffffffffffffffffffffffffffffff166323b872dd3087866040518463ffffffff1660e01b81526004016119d893929190611e9f565b600060405180830381600087803b1580156119f257600080fd5b505af1158015611a06573d6000803e3d6000fd5b505050505050505050565b600081359050611a20816121b6565b92915050565b600081359050611a35816121cd565b92915050565b600081359050611a4a816121e4565b92915050565b600060208284031215611a6257600080fd5b6000611a7084828501611a11565b91505092915050565b60008060408385031215611a8c57600080fd5b6000611a9a85828601611a11565b9250506020611aab85828601611a11565b9150509250929050565b60008060408385031215611ac857600080fd5b6000611ad685828601611a11565b9250506020611ae785828601611a3b565b9150509250929050565b60008060008060808587031215611b0757600080fd5b6000611b1587828801611a26565b9450506020611b2687828801611a11565b9350506040611b3787828801611a3b565b9250506060611b4887828801611a3b565b91505092959194509250565b600060208284031215611b6657600080fd5b6000611b7484828501611a3b565b91505092915050565b60008060408385031215611b9057600080fd5b6000611b9e85828601611a3b565b9250506020611baf85828601611a26565b9150509250929050565b600080600080600060a08688031215611bd157600080fd5b6000611bdf88828901611a3b565b9550506020611bf088828901611a26565b9450506040611c0188828901611a11565b9350506060611c1288828901611a3b565b9250506080611c2388828901611a3b565b9150509295509295909350565b60008060408385031215611c4357600080fd5b6000611c5185828601611a3b565b9250506020611c6285828601611a3b565b9150509250929050565b6000611c788383611e66565b60208301905092915050565b611c8d816120f6565b82525050565b6000611c9e82612032565b611ca8818561204a565b9350611cb383612022565b8060005b83811015611ce4578151611ccb8882611c6c565b9750611cd68361203d565b925050600181019050611cb7565b5085935050505092915050565b611cfa81612108565b82525050565b6000611d0d60268361205b565b91507f4f776e61626c653a206e6577206f776e657220697320746865207a65726f206160008301527f64647265737300000000000000000000000000000000000000000000000000006020830152604082019050919050565b6000611d73601e8361205b565b91507f4572726f723a20596f7520646f6e2774206f776e2074686973204e46542e00006000830152602082019050919050565b6000611db3601b8361205b565b91507f4572726f723a205374616b6520436f756e74204c696d697465642100000000006000830152602082019050919050565b6000611df360208361205b565b91507f4f776e61626c653a2063616c6c6572206973206e6f7420746865206f776e65726000830152602082019050919050565b6000611e33601e8361205b565b91507f4572726f723a204e6f7420656e6f756768205374616b696e67206665652100006000830152602082019050919050565b611e6f81612134565b82525050565b611e7e81612134565b82525050565b6000602082019050611e996000830184611c84565b92915050565b6000606082019050611eb46000830186611c84565b611ec16020830185611c84565b611ece6040830184611e75565b949350505050565b60006060820190508181036000830152611ef08186611c93565b9050611eff6020830185611e75565b611f0c6040830184611e75565b949350505050565b600060a082019050611f296000830188611cf1565b611f366020830187611c84565b611f436040830186611e75565b611f506060830185611e75565b611f5d6080830184611e75565b9695505050505050565b60006020820190508181036000830152611f8081611d00565b9050919050565b60006020820190508181036000830152611fa081611d66565b9050919050565b60006020820190508181036000830152611fc081611da6565b9050919050565b60006020820190508181036000830152611fe081611de6565b9050919050565b6000602082019050818103600083015261200081611e26565b9050919050565b600060208201905061201c6000830184611e75565b92915050565b6000819050602082019050919050565b600081519050919050565b6000602082019050919050565b600082825260208201905092915050565b600082825260208201905092915050565b600061207782612134565b915061208283612134565b9250827fffffffffffffffffffffffffffffffffffffffffffffffffffffffffffffffff038211156120b7576120b6612187565b5b828201905092915050565b60006120cd82612134565b91506120d883612134565b9250828210156120eb576120ea612187565b5b828203905092915050565b600061210182612114565b9050919050565b60008115159050919050565b600073ffffffffffffffffffffffffffffffffffffffff82169050919050565b6000819050919050565b600061214982612134565b91507fffffffffffffffffffffffffffffffffffffffffffffffffffffffffffffffff82141561217c5761217b612187565b5b600182019050919050565b7f4e487b7100000000000000000000000000000000000000000000000000000000600052601160045260246000fd5b6121bf816120f6565b81146121ca57600080fd5b50565b6121d681612108565b81146121e157600080fd5b50565b6121ed81612134565b81146121f857600080fd5b5056fea26469706673582212206e078d596aa90d24ce2e9ec21430cb22dd116e952a376eca30c4e5a263c8623a64736f6c63430008000033",
  "linkReferences": {},
  "deployedLinkReferences": {}
}