{
  "_format": "hh-sol-artifact-1",
  "contractName": "NftCollection",
  "sourceName": "contracts/NftCollection.sol",
  "abi": [
    {
      "inputs": [],
      "stateMutability": "nonpayable",
      "type": "constructor"
    },
    {
      "anonymous": false,
      "inputs": [
        {
          "indexed": true,
          "internalType": "address",
          "name": "owner",
          "type": "address"
        },
        {
          "indexed": true,
          "internalType": "address",
          "name": "approved",
          "type": "address"
        },
        {
          "indexed": true,
          "internalType": "uint256",
          "name": "tokenId",
          "type": "uint256"
        }
      ],
      "name": "Approval",
      "type": "event"
    },
    {
      "anonymous": false,
      "inputs": [
        {
          "indexed": true,
          "internalType": "address",
          "name": "owner",
          "type": "address"
        },
        {
          "indexed": true,
          "internalType": "address",
          "name": "operator",
          "type": "address"
        },
        {
          "indexed": false,
          "internalType": "bool",
          "name": "approved",
          "type": "bool"
        }
      ],
      "name": "ApprovalForAll",
      "type": "event"
    },
    {
      "anonymous": false,
      "inputs": [
        {
          "indexed": true,
          "internalType": "address",
          "name": "from",
          "type": "address"
        },
        {
          "indexed": true,
          "internalType": "address",
          "name": "to",
          "type": "address"
        },
        {
          "indexed": true,
          "internalType": "uint256",
          "name": "tokenId",
          "type": "uint256"
        }
      ],
      "name": "Transfer",
      "type": "event"
    },
    {
      "inputs": [
        {
          "internalType": "address",
          "name": "to",
          "type": "address"
        },
        {
          "internalType": "uint256",
          "name": "tokenId",
          "type": "uint256"
        }
      ],
      "name": "approve",
      "outputs": [],
      "stateMutability": "nonpayable",
      "type": "function"
    },
    {
      "inputs": [
        {
          "internalType": "address",
          "name": "owner",
          "type": "address"
        }
      ],
      "name": "balanceOf",
      "outputs": [
        {
          "internalType": "uint256",
          "name": "",
          "type": "uint256"
        }
      ],
      "stateMutability": "view",
      "type": "function"
    },
    {
      "inputs": [
        {
          "internalType": "uint256",
          "name": "tokenId",
          "type": "uint256"
        }
      ],
      "name": "getApproved",
      "outputs": [
        {
          "internalType": "address",
          "name": "",
          "type": "address"
        }
      ],
      "stateMutability": "view",
      "type": "function"
    },
    {
      "inputs": [],
      "name": "getId",
      "outputs": [
        {
          "internalType": "uint256",
          "name": "",
          "type": "uint256"
        }
      ],
      "stateMutability": "view",
      "type": "function"
    },
    {
      "inputs": [],
      "name": "incrementId",
      "outputs": [],
      "stateMutability": "nonpayable",
      "type": "function"
    },
    {
      "inputs": [
        {
          "internalType": "address",
          "name": "owner",
          "type": "address"
        },
        {
          "internalType": "address",
          "name": "operator",
          "type": "address"
        }
      ],
      "name": "isApprovedForAll",
      "outputs": [
        {
          "internalType": "bool",
          "name": "",
          "type": "bool"
        }
      ],
      "stateMutability": "view",
      "type": "function"
    },
    {
      "inputs": [
        {
          "internalType": "uint256",
          "name": "_amount",
          "type": "uint256"
        },
        {
          "internalType": "address",
          "name": "_user",
          "type": "address"
        }
      ],
      "name": "mint",
      "outputs": [],
      "stateMutability": "nonpayable",
      "type": "function"
    },
    {
      "inputs": [],
      "name": "name",
      "outputs": [
        {
          "internalType": "string",
          "name": "",
          "type": "string"
        }
      ],
      "stateMutability": "view",
      "type": "function"
    },
    {
      "inputs": [
        {
          "internalType": "uint256",
          "name": "tokenId",
          "type": "uint256"
        }
      ],
      "name": "ownerOf",
      "outputs": [
        {
          "internalType": "address",
          "name": "",
          "type": "address"
        }
      ],
      "stateMutability": "view",
      "type": "function"
    },
    {
      "inputs": [
        {
          "internalType": "address",
          "name": "from",
          "type": "address"
        },
        {
          "internalType": "address",
          "name": "to",
          "type": "address"
        },
        {
          "internalType": "uint256",
          "name": "tokenId",
          "type": "uint256"
        }
      ],
      "name": "safeTransferFrom",
      "outputs": [],
      "stateMutability": "nonpayable",
      "type": "function"
    },
    {
      "inputs": [
        {
          "internalType": "address",
          "name": "from",
          "type": "address"
        },
        {
          "internalType": "address",
          "name": "to",
          "type": "address"
        },
        {
          "internalType": "uint256",
          "name": "tokenId",
          "type": "uint256"
        },
        {
          "internalType": "bytes",
          "name": "_data",
          "type": "bytes"
        }
      ],
      "name": "safeTransferFrom",
      "outputs": [],
      "stateMutability": "nonpayable",
      "type": "function"
    },
    {
      "inputs": [
        {
          "internalType": "address",
          "name": "operator",
          "type": "address"
        },
        {
          "internalType": "bool",
          "name": "approved",
          "type": "bool"
        }
      ],
      "name": "setApprovalForAll",
      "outputs": [],
      "stateMutability": "nonpayable",
      "type": "function"
    },
    {
      "inputs": [
        {
          "internalType": "bytes4",
          "name": "interfaceId",
          "type": "bytes4"
        }
      ],
      "name": "supportsInterface",
      "outputs": [
        {
          "internalType": "bool",
          "name": "",
          "type": "bool"
        }
      ],
      "stateMutability": "view",
      "type": "function"
    },
    {
      "inputs": [],
      "name": "symbol",
      "outputs": [
        {
          "internalType": "string",
          "name": "",
          "type": "string"
        }
      ],
      "stateMutability": "view",
      "type": "function"
    },
    {
      "inputs": [
        {
          "internalType": "uint256",
          "name": "index",
          "type": "uint256"
        }
      ],
      "name": "tokenByIndex",
      "outputs": [
        {
          "internalType": "uint256",
          "name": "",
          "type": "uint256"
        }
      ],
      "stateMutability": "view",
      "type": "function"
    },
    {
      "inputs": [
        {
          "internalType": "address",
          "name": "owner",
          "type": "address"
        },
        {
          "internalType": "uint256",
          "name": "index",
          "type": "uint256"
        }
      ],
      "name": "tokenOfOwnerByIndex",
      "outputs": [
        {
          "internalType": "uint256",
          "name": "",
          "type": "uint256"
        }
      ],
      "stateMutability": "view",
      "type": "function"
    },
    {
      "inputs": [
        {
          "internalType": "uint256",
          "name": "tokenId",
          "type": "uint256"
        }
      ],
      "name": "tokenURI",
      "outputs": [
        {
          "internalType": "string",
          "name": "",
          "type": "string"
        }
      ],
      "stateMutability": "view",
      "type": "function"
    },
    {
      "inputs": [],
      "name": "totalSupply",
      "outputs": [
        {
          "internalType": "uint256",
          "name": "",
          "type": "uint256"
        }
      ],
      "stateMutability": "view",
      "type": "function"
    },
    {
      "inputs": [
        {
          "internalType": "address",
          "name": "from",
          "type": "address"
        },
        {
          "internalType": "address",
          "name": "to",
          "type": "address"
        },
        {
          "internalType": "uint256",
          "name": "tokenId",
          "type": "uint256"
        }
      ],
      "name": "transferFrom",
      "outputs": [],
      "stateMutability": "nonpayable",
      "type": "function"
    }
  ],
  "bytecode": "0x60806040526000600a553480156200001657600080fd5b506040518060400160405280600d81526020017f4e6674436f6c6c656374696f6e000000000000000000000000000000000000008152506040518060400160405280600481526020017f434f4c4c0000000000000000000000000000000000000000000000000000000081525081600090805190602001906200009b929190620000bd565b508060019080519060200190620000b4929190620000bd565b505050620001d2565b828054620000cb906200016d565b90600052602060002090601f016020900481019282620000ef57600085556200013b565b82601f106200010a57805160ff19168380011785556200013b565b828001600101855582156200013b579182015b828111156200013a5782518255916020019190600101906200011d565b5b5090506200014a91906200014e565b5090565b5b80821115620001695760008160009055506001016200014f565b5090565b600060028204905060018216806200018657607f821691505b602082108114156200019d576200019c620001a3565b5b50919050565b7f4e487b7100000000000000000000000000000000000000000000000000000000600052602260045260246000fd5b612f0180620001e26000396000f3fe608060405234801561001057600080fd5b50600436106101215760003560e01c80635d1ca631116100ad578063a22cb46511610071578063a22cb4651461032e578063b88d4fde1461034a578063bda208d114610366578063c87b56dd14610370578063e985e9c5146103a057610121565b80635d1ca631146102765780636352211e1461029457806370a08231146102c457806394bf804d146102f457806395d89b411461031057610121565b806318160ddd116100f457806318160ddd146101c057806323b872dd146101de5780632f745c59146101fa57806342842e0e1461022a5780634f6ccce71461024657610121565b806301ffc9a71461012657806306fdde0314610156578063081812fc14610174578063095ea7b3146101a4575b600080fd5b610140600480360381019061013b9190612089565b6103d0565b60405161014d9190612889565b60405180910390f35b61015e61044a565b60405161016b91906128a4565b60405180910390f35b61018e600480360381019061018991906120db565b6104dc565b60405161019b9190612822565b60405180910390f35b6101be60048036038101906101b9919061204d565b610561565b005b6101c8610679565b6040516101d59190612ac6565b60405180910390f35b6101f860048036038101906101f39190611f47565b610686565b005b610214600480360381019061020f919061204d565b6106e6565b6040516102219190612ac6565b60405180910390f35b610244600480360381019061023f9190611f47565b61078b565b005b610260600480360381019061025b91906120db565b6107ab565b60405161026d9190612ac6565b60405180910390f35b61027e610842565b60405161028b9190612ac6565b60405180910390f35b6102ae60048036038101906102a991906120db565b61084c565b6040516102bb9190612822565b60405180910390f35b6102de60048036038101906102d99190611ee2565b6108fe565b6040516102eb9190612ac6565b60405180910390f35b61030e60048036038101906103099190612104565b6109b6565b005b6103186109f0565b60405161032591906128a4565b60405180910390f35b61034860048036038101906103439190612011565b610a82565b005b610364600480360381019061035f9190611f96565b610a98565b005b61036e610afa565b005b61038a600480360381019061038591906120db565b610b14565b60405161039791906128a4565b60405180910390f35b6103ba60048036038101906103b59190611f0b565b610bbb565b6040516103c79190612889565b60405180910390f35b60007f780e9d63000000000000000000000000000000000000000000000000000000007bffffffffffffffffffffffffffffffffffffffffffffffffffffffff1916827bffffffffffffffffffffffffffffffffffffffffffffffffffffffff19161480610443575061044282610c4f565b5b9050919050565b60606000805461045990612cf6565b80601f016020809104026020016040519081016040528092919081815260200182805461048590612cf6565b80156104d25780601f106104a7576101008083540402835291602001916104d2565b820191906000526020600020905b8154815290600101906020018083116104b557829003601f168201915b5050505050905090565b60006104e782610d31565b610526576040517f08c379a000000000000000000000000000000000000000000000000000000000815260040161051d90612a06565b60405180910390fd5b6004600083815260200190815260200160002060009054906101000a900473ffffffffffffffffffffffffffffffffffffffff169050919050565b600061056c8261084c565b90508073ffffffffffffffffffffffffffffffffffffffff168373ffffffffffffffffffffffffffffffffffffffff1614156105dd576040517f08c379a00000000000000000000000000000000000000000000000000000000081526004016105d490612a66565b60405180910390fd5b8073ffffffffffffffffffffffffffffffffffffffff166105fc610d9d565b73ffffffffffffffffffffffffffffffffffffffff16148061062b575061062a81610625610d9d565b610bbb565b5b61066a576040517f08c379a000000000000000000000000000000000000000000000000000000000815260040161066190612986565b60405180910390fd5b6106748383610da5565b505050565b6000600880549050905090565b610697610691610d9d565b82610e5e565b6106d6576040517f08c379a00000000000000000000000000000000000000000000000000000000081526004016106cd90612a86565b60405180910390fd5b6106e1838383610f3c565b505050565b60006106f1836108fe565b8210610732576040517f08c379a0000000000000000000000000000000000000000000000000000000008152600401610729906128c6565b60405180910390fd5b600660008473ffffffffffffffffffffffffffffffffffffffff1673ffffffffffffffffffffffffffffffffffffffff168152602001908152602001600020600083815260200190815260200160002054905092915050565b6107a683838360405180602001604052806000815250610a98565b505050565b60006107b5610679565b82106107f6576040517f08c379a00000000000000000000000000000000000000000000000000000000081526004016107ed90612aa6565b60405180910390fd5b60088281548110610830577f4e487b7100000000000000000000000000000000000000000000000000000000600052603260045260246000fd5b90600052602060002001549050919050565b6000600a54905090565b6000806002600084815260200190815260200160002060009054906101000a900473ffffffffffffffffffffffffffffffffffffffff169050600073ffffffffffffffffffffffffffffffffffffffff168173ffffffffffffffffffffffffffffffffffffffff1614156108f5576040517f08c379a00000000000000000000000000000000000000000000000000000000081526004016108ec906129c6565b60405180910390fd5b80915050919050565b60008073ffffffffffffffffffffffffffffffffffffffff168273ffffffffffffffffffffffffffffffffffffffff16141561096f576040517f08c379a0000000000000000000000000000000000000000000000000000000008152600401610966906129a6565b60405180910390fd5b600360008373ffffffffffffffffffffffffffffffffffffffff1673ffffffffffffffffffffffffffffffffffffffff168152602001908152602001600020549050919050565b60005b828110156109eb576109d2826109cd610679565b611198565b6109da610afa565b806109e490612d28565b90506109b9565b505050565b6060600180546109ff90612cf6565b80601f0160208091040260200160405190810160405280929190818152602001828054610a2b90612cf6565b8015610a785780601f10610a4d57610100808354040283529160200191610a78565b820191906000526020600020905b815481529060010190602001808311610a5b57829003601f168201915b5050505050905090565b610a94610a8d610d9d565b83836111b6565b5050565b610aa9610aa3610d9d565b83610e5e565b610ae8576040517f08c379a0000000000000000000000000000000000000000000000000000000008152600401610adf90612a86565b60405180910390fd5b610af484848484611323565b50505050565b600a6000815480929190610b0d90612d28565b9190505550565b6060610b1f82610d31565b610b5e576040517f08c379a0000000000000000000000000000000000000000000000000000000008152600401610b5590612a46565b60405180910390fd5b6000610b6861137f565b90506000815111610b885760405180602001604052806000815250610bb3565b80610b9284611396565b604051602001610ba39291906127fe565b6040516020818303038152906040525b915050919050565b6000600560008473ffffffffffffffffffffffffffffffffffffffff1673ffffffffffffffffffffffffffffffffffffffff16815260200190815260200160002060008373ffffffffffffffffffffffffffffffffffffffff1673ffffffffffffffffffffffffffffffffffffffff16815260200190815260200160002060009054906101000a900460ff16905092915050565b60007f80ac58cd000000000000000000000000000000000000000000000000000000007bffffffffffffffffffffffffffffffffffffffffffffffffffffffff1916827bffffffffffffffffffffffffffffffffffffffffffffffffffffffff19161480610d1a57507f5b5e139f000000000000000000000000000000000000000000000000000000007bffffffffffffffffffffffffffffffffffffffffffffffffffffffff1916827bffffffffffffffffffffffffffffffffffffffffffffffffffffffff1916145b80610d2a5750610d2982611543565b5b9050919050565b60008073ffffffffffffffffffffffffffffffffffffffff166002600084815260200190815260200160002060009054906101000a900473ffffffffffffffffffffffffffffffffffffffff1673ffffffffffffffffffffffffffffffffffffffff1614159050919050565b600033905090565b816004600083815260200190815260200160002060006101000a81548173ffffffffffffffffffffffffffffffffffffffff021916908373ffffffffffffffffffffffffffffffffffffffff160217905550808273ffffffffffffffffffffffffffffffffffffffff16610e188361084c565b73ffffffffffffffffffffffffffffffffffffffff167f8c5be1e5ebec7d5bd14f71427d1e84f3dd0314c0f7b2291e5b200ac8c7c3b92560405160405180910390a45050565b6000610e6982610d31565b610ea8576040517f08c379a0000000000000000000000000000000000000000000000000000000008152600401610e9f90612966565b60405180910390fd5b6000610eb38361084c565b90508073ffffffffffffffffffffffffffffffffffffffff168473ffffffffffffffffffffffffffffffffffffffff161480610f2257508373ffffffffffffffffffffffffffffffffffffffff16610f0a846104dc565b73ffffffffffffffffffffffffffffffffffffffff16145b80610f335750610f328185610bbb565b5b91505092915050565b8273ffffffffffffffffffffffffffffffffffffffff16610f5c8261084c565b73ffffffffffffffffffffffffffffffffffffffff1614610fb2576040517f08c379a0000000000000000000000000000000000000000000000000000000008152600401610fa990612a26565b60405180910390fd5b600073ffffffffffffffffffffffffffffffffffffffff168273ffffffffffffffffffffffffffffffffffffffff161415611022576040517f08c379a000000000000000000000000000000000000000000000000000000000815260040161101990612926565b60405180910390fd5b61102d8383836115ad565b611038600082610da5565b6001600360008573ffffffffffffffffffffffffffffffffffffffff1673ffffffffffffffffffffffffffffffffffffffff16815260200190815260200160002060008282546110889190612c0c565b925050819055506001600360008473ffffffffffffffffffffffffffffffffffffffff1673ffffffffffffffffffffffffffffffffffffffff16815260200190815260200160002060008282546110df9190612b85565b92505081905550816002600083815260200190815260200160002060006101000a81548173ffffffffffffffffffffffffffffffffffffffff021916908373ffffffffffffffffffffffffffffffffffffffff160217905550808273ffffffffffffffffffffffffffffffffffffffff168473ffffffffffffffffffffffffffffffffffffffff167fddf252ad1be2c89b69c2b068fc378daa952ba7f163c4a11628f55a4df523b3ef60405160405180910390a4505050565b6111b28282604051806020016040528060008152506116c1565b5050565b8173ffffffffffffffffffffffffffffffffffffffff168373ffffffffffffffffffffffffffffffffffffffff161415611225576040517f08c379a000000000000000000000000000000000000000000000000000000000815260040161121c90612946565b60405180910390fd5b80600560008573ffffffffffffffffffffffffffffffffffffffff1673ffffffffffffffffffffffffffffffffffffffff16815260200190815260200160002060008473ffffffffffffffffffffffffffffffffffffffff1673ffffffffffffffffffffffffffffffffffffffff16815260200190815260200160002060006101000a81548160ff0219169083151502179055508173ffffffffffffffffffffffffffffffffffffffff168373ffffffffffffffffffffffffffffffffffffffff167f17307eab39ab6107e8899845ad3d59bd9653f200f220920489ca2b5937696c31836040516113169190612889565b60405180910390a3505050565b61132e848484610f3c565b61133a8484848461171c565b611379576040517f08c379a0000000000000000000000000000000000000000000000000000000008152600401611370906128e6565b60405180910390fd5b50505050565b606060405180602001604052806000815250905090565b606060008214156113de576040518060400160405280600181526020017f3000000000000000000000000000000000000000000000000000000000000000815250905061153e565b600082905060005b600082146114105780806113f990612d28565b915050600a826114099190612bdb565b91506113e6565b60008167ffffffffffffffff811115611452577f4e487b7100000000000000000000000000000000000000000000000000000000600052604160045260246000fd5b6040519080825280601f01601f1916602001820160405280156114845781602001600182028036833780820191505090505b5090505b600085146115375760018261149d9190612c0c565b9150600a856114ac9190612d71565b60306114b89190612b85565b60f81b8183815181106114f4577f4e487b7100000000000000000000000000000000000000000000000000000000600052603260045260246000fd5b60200101907effffffffffffffffffffffffffffffffffffffffffffffffffffffffffffff1916908160001a905350600a856115309190612bdb565b9450611488565b8093505050505b919050565b60007f01ffc9a7000000000000000000000000000000000000000000000000000000007bffffffffffffffffffffffffffffffffffffffffffffffffffffffff1916827bffffffffffffffffffffffffffffffffffffffffffffffffffffffff1916149050919050565b6115b88383836118b3565b600073ffffffffffffffffffffffffffffffffffffffff168373ffffffffffffffffffffffffffffffffffffffff1614156115fb576115f6816118b8565b61163a565b8173ffffffffffffffffffffffffffffffffffffffff168373ffffffffffffffffffffffffffffffffffffffff1614611639576116388382611901565b5b5b600073ffffffffffffffffffffffffffffffffffffffff168273ffffffffffffffffffffffffffffffffffffffff16141561167d5761167881611a6e565b6116bc565b8273ffffffffffffffffffffffffffffffffffffffff168273ffffffffffffffffffffffffffffffffffffffff16146116bb576116ba8282611bb1565b5b5b505050565b6116cb8383611c30565b6116d8600084848461171c565b611717576040517f08c379a000000000000000000000000000000000000000000000000000000000815260040161170e906128e6565b60405180910390fd5b505050565b600061173d8473ffffffffffffffffffffffffffffffffffffffff16611dfe565b156118a6578373ffffffffffffffffffffffffffffffffffffffff1663150b7a02611766610d9d565b8786866040518563ffffffff1660e01b8152600401611788949392919061283d565b602060405180830381600087803b1580156117a257600080fd5b505af19250505080156117d357506040513d601f19601f820116820180604052508101906117d091906120b2565b60015b611856573d8060008114611803576040519150601f19603f3d011682016040523d82523d6000602084013e611808565b606091505b5060008151141561184e576040517f08c379a0000000000000000000000000000000000000000000000000000000008152600401611845906128e6565b60405180910390fd5b805181602001fd5b63150b7a0260e01b7bffffffffffffffffffffffffffffffffffffffffffffffffffffffff1916817bffffffffffffffffffffffffffffffffffffffffffffffffffffffff1916149150506118ab565b600190505b949350505050565b505050565b6008805490506009600083815260200190815260200160002081905550600881908060018154018082558091505060019003906000526020600020016000909190919091505550565b6000600161190e846108fe565b6119189190612c0c565b90506000600760008481526020019081526020016000205490508181146119fd576000600660008673ffffffffffffffffffffffffffffffffffffffff1673ffffffffffffffffffffffffffffffffffffffff168152602001908152602001600020600084815260200190815260200160002054905080600660008773ffffffffffffffffffffffffffffffffffffffff1673ffffffffffffffffffffffffffffffffffffffff168152602001908152602001600020600084815260200190815260200160002081905550816007600083815260200190815260200160002081905550505b6007600084815260200190815260200160002060009055600660008573ffffffffffffffffffffffffffffffffffffffff1673ffffffffffffffffffffffffffffffffffffffff16815260200190815260200160002060008381526020019081526020016000206000905550505050565b60006001600880549050611a829190612c0c565b9050600060096000848152602001908152602001600020549050600060088381548110611ad8577f4e487b7100000000000000000000000000000000000000000000000000000000600052603260045260246000fd5b906000526020600020015490508060088381548110611b20577f4e487b7100000000000000000000000000000000000000000000000000000000600052603260045260246000fd5b906000526020600020018190555081600960008381526020019081526020016000208190555060096000858152602001908152602001600020600090556008805480611b95577f4e487b7100000000000000000000000000000000000000000000000000000000600052603160045260246000fd5b6001900381819060005260206000200160009055905550505050565b6000611bbc836108fe565b905081600660008573ffffffffffffffffffffffffffffffffffffffff1673ffffffffffffffffffffffffffffffffffffffff168152602001908152602001600020600083815260200190815260200160002081905550806007600084815260200190815260200160002081905550505050565b600073ffffffffffffffffffffffffffffffffffffffff168273ffffffffffffffffffffffffffffffffffffffff161415611ca0576040517f08c379a0000000000000000000000000000000000000000000000000000000008152600401611c97906129e6565b60405180910390fd5b611ca981610d31565b15611ce9576040517f08c379a0000000000000000000000000000000000000000000000000000000008152600401611ce090612906565b60405180910390fd5b611cf5600083836115ad565b6001600360008473ffffffffffffffffffffffffffffffffffffffff1673ffffffffffffffffffffffffffffffffffffffff1681526020019081526020016000206000828254611d459190612b85565b92505081905550816002600083815260200190815260200160002060006101000a81548173ffffffffffffffffffffffffffffffffffffffff021916908373ffffffffffffffffffffffffffffffffffffffff160217905550808273ffffffffffffffffffffffffffffffffffffffff16600073ffffffffffffffffffffffffffffffffffffffff167fddf252ad1be2c89b69c2b068fc378daa952ba7f163c4a11628f55a4df523b3ef60405160405180910390a45050565b600080823b905060008111915050919050565b6000611e24611e1f84612b12565b612ae1565b905082815260208101848484011115611e3c57600080fd5b611e47848285612cb4565b509392505050565b600081359050611e5e81612e6f565b92915050565b600081359050611e7381612e86565b92915050565b600081359050611e8881612e9d565b92915050565b600081519050611e9d81612e9d565b92915050565b600082601f830112611eb457600080fd5b8135611ec4848260208601611e11565b91505092915050565b600081359050611edc81612eb4565b92915050565b600060208284031215611ef457600080fd5b6000611f0284828501611e4f565b91505092915050565b60008060408385031215611f1e57600080fd5b6000611f2c85828601611e4f565b9250506020611f3d85828601611e4f565b9150509250929050565b600080600060608486031215611f5c57600080fd5b6000611f6a86828701611e4f565b9350506020611f7b86828701611e4f565b9250506040611f8c86828701611ecd565b9150509250925092565b60008060008060808587031215611fac57600080fd5b6000611fba87828801611e4f565b9450506020611fcb87828801611e4f565b9350506040611fdc87828801611ecd565b925050606085013567ffffffffffffffff811115611ff957600080fd5b61200587828801611ea3565b91505092959194509250565b6000806040838503121561202457600080fd5b600061203285828601611e4f565b925050602061204385828601611e64565b9150509250929050565b6000806040838503121561206057600080fd5b600061206e85828601611e4f565b925050602061207f85828601611ecd565b9150509250929050565b60006020828403121561209b57600080fd5b60006120a984828501611e79565b91505092915050565b6000602082840312156120c457600080fd5b60006120d284828501611e8e565b91505092915050565b6000602082840312156120ed57600080fd5b60006120fb84828501611ecd565b91505092915050565b6000806040838503121561211757600080fd5b600061212585828601611ecd565b925050602061213685828601611e4f565b9150509250929050565b61214981612c40565b82525050565b61215881612c52565b82525050565b600061216982612b42565b6121738185612b58565b9350612183818560208601612cc3565b61218c81612e5e565b840191505092915050565b60006121a282612b4d565b6121ac8185612b69565b93506121bc818560208601612cc3565b6121c581612e5e565b840191505092915050565b60006121db82612b4d565b6121e58185612b7a565b93506121f5818560208601612cc3565b80840191505092915050565b600061220e602b83612b69565b91507f455243373231456e756d657261626c653a206f776e657220696e646578206f7560008301527f74206f6620626f756e64730000000000000000000000000000000000000000006020830152604082019050919050565b6000612274603283612b69565b91507f4552433732313a207472616e7366657220746f206e6f6e20455243373231526560008301527f63656976657220696d706c656d656e74657200000000000000000000000000006020830152604082019050919050565b60006122da601c83612b69565b91507f4552433732313a20746f6b656e20616c7265616479206d696e746564000000006000830152602082019050919050565b600061231a602483612b69565b91507f4552433732313a207472616e7366657220746f20746865207a65726f2061646460008301527f72657373000000000000000000000000000000000000000000000000000000006020830152604082019050919050565b6000612380601983612b69565b91507f4552433732313a20617070726f766520746f2063616c6c6572000000000000006000830152602082019050919050565b60006123c0602c83612b69565b91507f4552433732313a206f70657261746f7220717565727920666f72206e6f6e657860008301527f697374656e7420746f6b656e00000000000000000000000000000000000000006020830152604082019050919050565b6000612426603883612b69565b91507f4552433732313a20617070726f76652063616c6c6572206973206e6f74206f7760008301527f6e6572206e6f7220617070726f76656420666f7220616c6c00000000000000006020830152604082019050919050565b600061248c602a83612b69565b91507f4552433732313a2062616c616e636520717565727920666f7220746865207a6560008301527f726f2061646472657373000000000000000000000000000000000000000000006020830152604082019050919050565b60006124f2602983612b69565b91507f4552433732313a206f776e657220717565727920666f72206e6f6e657869737460008301527f656e7420746f6b656e00000000000000000000000000000000000000000000006020830152604082019050919050565b6000612558602083612b69565b91507f4552433732313a206d696e7420746f20746865207a65726f20616464726573736000830152602082019050919050565b6000612598602c83612b69565b91507f4552433732313a20617070726f76656420717565727920666f72206e6f6e657860008301527f697374656e7420746f6b656e00000000000000000000000000000000000000006020830152604082019050919050565b60006125fe602983612b69565b91507f4552433732313a207472616e73666572206f6620746f6b656e2074686174206960008301527f73206e6f74206f776e00000000000000000000000000000000000000000000006020830152604082019050919050565b6000612664602f83612b69565b91507f4552433732314d657461646174613a2055524920717565727920666f72206e6f60008301527f6e6578697374656e7420746f6b656e00000000000000000000000000000000006020830152604082019050919050565b60006126ca602183612b69565b91507f4552433732313a20617070726f76616c20746f2063757272656e74206f776e6560008301527f72000000000000000000000000000000000000000000000000000000000000006020830152604082019050919050565b6000612730603183612b69565b91507f4552433732313a207472616e736665722063616c6c6572206973206e6f74206f60008301527f776e6572206e6f7220617070726f7665640000000000000000000000000000006020830152604082019050919050565b6000612796602c83612b69565b91507f455243373231456e756d657261626c653a20676c6f62616c20696e646578206f60008301527f7574206f6620626f756e647300000000000000000000000000000000000000006020830152604082019050919050565b6127f881612caa565b82525050565b600061280a82856121d0565b915061281682846121d0565b91508190509392505050565b60006020820190506128376000830184612140565b92915050565b60006080820190506128526000830187612140565b61285f6020830186612140565b61286c60408301856127ef565b818103606083015261287e818461215e565b905095945050505050565b600060208201905061289e600083018461214f565b92915050565b600060208201905081810360008301526128be8184612197565b905092915050565b600060208201905081810360008301526128df81612201565b9050919050565b600060208201905081810360008301526128ff81612267565b9050919050565b6000602082019050818103600083015261291f816122cd565b9050919050565b6000602082019050818103600083015261293f8161230d565b9050919050565b6000602082019050818103600083015261295f81612373565b9050919050565b6000602082019050818103600083015261297f816123b3565b9050919050565b6000602082019050818103600083015261299f81612419565b9050919050565b600060208201905081810360008301526129bf8161247f565b9050919050565b600060208201905081810360008301526129df816124e5565b9050919050565b600060208201905081810360008301526129ff8161254b565b9050919050565b60006020820190508181036000830152612a1f8161258b565b9050919050565b60006020820190508181036000830152612a3f816125f1565b9050919050565b60006020820190508181036000830152612a5f81612657565b9050919050565b60006020820190508181036000830152612a7f816126bd565b9050919050565b60006020820190508181036000830152612a9f81612723565b9050919050565b60006020820190508181036000830152612abf81612789565b9050919050565b6000602082019050612adb60008301846127ef565b92915050565b6000604051905081810181811067ffffffffffffffff82111715612b0857612b07612e2f565b5b8060405250919050565b600067ffffffffffffffff821115612b2d57612b2c612e2f565b5b601f19601f8301169050602081019050919050565b600081519050919050565b600081519050919050565b600082825260208201905092915050565b600082825260208201905092915050565b600081905092915050565b6000612b9082612caa565b9150612b9b83612caa565b9250827fffffffffffffffffffffffffffffffffffffffffffffffffffffffffffffffff03821115612bd057612bcf612da2565b5b828201905092915050565b6000612be682612caa565b9150612bf183612caa565b925082612c0157612c00612dd1565b5b828204905092915050565b6000612c1782612caa565b9150612c2283612caa565b925082821015612c3557612c34612da2565b5b828203905092915050565b6000612c4b82612c8a565b9050919050565b60008115159050919050565b60007fffffffff0000000000000000000000000000000000000000000000000000000082169050919050565b600073ffffffffffffffffffffffffffffffffffffffff82169050919050565b6000819050919050565b82818337600083830152505050565b60005b83811015612ce1578082015181840152602081019050612cc6565b83811115612cf0576000848401525b50505050565b60006002820490506001821680612d0e57607f821691505b60208210811415612d2257612d21612e00565b5b50919050565b6000612d3382612caa565b91507fffffffffffffffffffffffffffffffffffffffffffffffffffffffffffffffff821415612d6657612d65612da2565b5b600182019050919050565b6000612d7c82612caa565b9150612d8783612caa565b925082612d9757612d96612dd1565b5b828206905092915050565b7f4e487b7100000000000000000000000000000000000000000000000000000000600052601160045260246000fd5b7f4e487b7100000000000000000000000000000000000000000000000000000000600052601260045260246000fd5b7f4e487b7100000000000000000000000000000000000000000000000000000000600052602260045260246000fd5b7f4e487b7100000000000000000000000000000000000000000000000000000000600052604160045260246000fd5b6000601f19601f8301169050919050565b612e7881612c40565b8114612e8357600080fd5b50565b612e8f81612c52565b8114612e9a57600080fd5b50565b612ea681612c5e565b8114612eb157600080fd5b50565b612ebd81612caa565b8114612ec857600080fd5b5056fea2646970667358221220359dc5f3f7499792a4c3d78cfb4f620e7c79009d6a12dee8e6b157199609b88164736f6c63430008000033",
  "linkReferences": {},
  "deployedLinkReferences": {}
}