{
  "_format": "hh-sol-artifact-1",
  "contractName": "CharacterNFT",
  "sourceName": "contracts/CharacterNFT.sol",
  "abi": [
    {
      "inputs": [],
      "stateMutability": "nonpayable",
      "type": "constructor"
    },
    {
      "anonymous": false,
      "inputs": [
        {
          "indexed": true,
          "internalType": "address",
          "name": "owner",
          "type": "address"
        },
        {
          "indexed": true,
          "internalType": "address",
          "name": "approved",
          "type": "address"
        },
        {
          "indexed": true,
          "internalType": "uint256",
          "name": "tokenId",
          "type": "uint256"
        }
      ],
      "name": "Approval",
      "type": "event"
    },
    {
      "anonymous": false,
      "inputs": [
        {
          "indexed": true,
          "internalType": "address",
          "name": "owner",
          "type": "address"
        },
        {
          "indexed": true,
          "internalType": "address",
          "name": "operator",
          "type": "address"
        },
        {
          "indexed": false,
          "internalType": "bool",
          "name": "approved",
          "type": "bool"
        }
      ],
      "name": "ApprovalForAll",
      "type": "event"
    },
    {
      "anonymous": false,
      "inputs": [
        {
          "indexed": true,
          "internalType": "address",
          "name": "previousOwner",
          "type": "address"
        },
        {
          "indexed": true,
          "internalType": "address",
          "name": "newOwner",
          "type": "address"
        }
      ],
      "name": "OwnershipTransferred",
      "type": "event"
    },
    {
      "anonymous": false,
      "inputs": [
        {
          "indexed": true,
          "internalType": "address",
          "name": "from",
          "type": "address"
        },
        {
          "indexed": true,
          "internalType": "address",
          "name": "to",
          "type": "address"
        },
        {
          "indexed": true,
          "internalType": "uint256",
          "name": "tokenId",
          "type": "uint256"
        }
      ],
      "name": "Transfer",
      "type": "event"
    },
    {
      "inputs": [],
      "name": "PUBLIC_SALE_PRICE",
      "outputs": [
        {
          "internalType": "uint256",
          "name": "",
          "type": "uint256"
        }
      ],
      "stateMutability": "view",
      "type": "function"
    },
    {
      "inputs": [],
      "name": "WHITELIST_SALE_PRICE",
      "outputs": [
        {
          "internalType": "uint256",
          "name": "",
          "type": "uint256"
        }
      ],
      "stateMutability": "view",
      "type": "function"
    },
    {
      "inputs": [
        {
          "internalType": "address",
          "name": "to",
          "type": "address"
        },
        {
          "internalType": "uint256",
          "name": "tokenId",
          "type": "uint256"
        }
      ],
      "name": "approve",
      "outputs": [],
      "stateMutability": "nonpayable",
      "type": "function"
    },
    {
      "inputs": [
        {
          "internalType": "address",
          "name": "owner",
          "type": "address"
        }
      ],
      "name": "balanceOf",
      "outputs": [
        {
          "internalType": "uint256",
          "name": "",
          "type": "uint256"
        }
      ],
      "stateMutability": "view",
      "type": "function"
    },
    {
      "inputs": [],
      "name": "baseURI",
      "outputs": [
        {
          "internalType": "string",
          "name": "",
          "type": "string"
        }
      ],
      "stateMutability": "view",
      "type": "function"
    },
    {
      "inputs": [
        {
          "internalType": "uint256",
          "name": "tokenId",
          "type": "uint256"
        }
      ],
      "name": "getApproved",
      "outputs": [
        {
          "internalType": "address",
          "name": "",
          "type": "address"
        }
      ],
      "stateMutability": "view",
      "type": "function"
    },
    {
      "inputs": [
        {
          "internalType": "address",
          "name": "owner",
          "type": "address"
        },
        {
          "internalType": "address",
          "name": "operator",
          "type": "address"
        }
      ],
      "name": "isApprovedForAll",
      "outputs": [
        {
          "internalType": "bool",
          "name": "",
          "type": "bool"
        }
      ],
      "stateMutability": "view",
      "type": "function"
    },
    {
      "inputs": [
        {
          "internalType": "address",
          "name": "",
          "type": "address"
        }
      ],
      "name": "isClaimed",
      "outputs": [
        {
          "internalType": "bool",
          "name": "",
          "type": "bool"
        }
      ],
      "stateMutability": "view",
      "type": "function"
    },
    {
      "inputs": [],
      "name": "maxPublicMint",
      "outputs": [
        {
          "internalType": "uint256",
          "name": "",
          "type": "uint256"
        }
      ],
      "stateMutability": "view",
      "type": "function"
    },
    {
      "inputs": [],
      "name": "maxWhitelistId",
      "outputs": [
        {
          "internalType": "uint256",
          "name": "",
          "type": "uint256"
        }
      ],
      "stateMutability": "view",
      "type": "function"
    },
    {
      "inputs": [
        {
          "internalType": "bytes32[]",
          "name": "merkleProof",
          "type": "bytes32[]"
        }
      ],
      "name": "mintWhitelist",
      "outputs": [],
      "stateMutability": "payable",
      "type": "function"
    },
    {
      "inputs": [],
      "name": "name",
      "outputs": [
        {
          "internalType": "string",
          "name": "",
          "type": "string"
        }
      ],
      "stateMutability": "view",
      "type": "function"
    },
    {
      "inputs": [],
      "name": "owner",
      "outputs": [
        {
          "internalType": "address",
          "name": "",
          "type": "address"
        }
      ],
      "stateMutability": "view",
      "type": "function"
    },
    {
      "inputs": [
        {
          "internalType": "uint256",
          "name": "tokenId",
          "type": "uint256"
        }
      ],
      "name": "ownerOf",
      "outputs": [
        {
          "internalType": "address",
          "name": "",
          "type": "address"
        }
      ],
      "stateMutability": "view",
      "type": "function"
    },
    {
      "inputs": [
        {
          "internalType": "uint256",
          "name": "numberOfTokens",
          "type": "uint256"
        }
      ],
      "name": "publicMint",
      "outputs": [],
      "stateMutability": "payable",
      "type": "function"
    },
    {
      "inputs": [],
      "name": "publicMintId",
      "outputs": [
        {
          "internalType": "uint256",
          "name": "",
          "type": "uint256"
        }
      ],
      "stateMutability": "view",
      "type": "function"
    },
    {
      "inputs": [],
      "name": "renounceOwnership",
      "outputs": [],
      "stateMutability": "nonpayable",
      "type": "function"
    },
    {
      "inputs": [
        {
          "internalType": "address",
          "name": "from",
          "type": "address"
        },
        {
          "internalType": "address",
          "name": "to",
          "type": "address"
        },
        {
          "internalType": "uint256",
          "name": "tokenId",
          "type": "uint256"
        }
      ],
      "name": "safeTransferFrom",
      "outputs": [],
      "stateMutability": "nonpayable",
      "type": "function"
    },
    {
      "inputs": [
        {
          "internalType": "address",
          "name": "from",
          "type": "address"
        },
        {
          "internalType": "address",
          "name": "to",
          "type": "address"
        },
        {
          "internalType": "uint256",
          "name": "tokenId",
          "type": "uint256"
        },
        {
          "internalType": "bytes",
          "name": "_data",
          "type": "bytes"
        }
      ],
      "name": "safeTransferFrom",
      "outputs": [],
      "stateMutability": "nonpayable",
      "type": "function"
    },
    {
      "inputs": [
        {
          "internalType": "address",
          "name": "operator",
          "type": "address"
        },
        {
          "internalType": "bool",
          "name": "approved",
          "type": "bool"
        }
      ],
      "name": "setApprovalForAll",
      "outputs": [],
      "stateMutability": "nonpayable",
      "type": "function"
    },
    {
      "inputs": [
        {
          "internalType": "string",
          "name": "_baseURI",
          "type": "string"
        }
      ],
      "name": "setBaseURI",
      "outputs": [],
      "stateMutability": "nonpayable",
      "type": "function"
    },
    {
      "inputs": [
        {
          "internalType": "bool",
          "name": "_paused",
          "type": "bool"
        }
      ],
      "name": "setPaused",
      "outputs": [],
      "stateMutability": "nonpayable",
      "type": "function"
    },
    {
      "inputs": [
        {
          "internalType": "bytes32",
          "name": "merkleRoot",
          "type": "bytes32"
        }
      ],
      "name": "setWhitelistMerkleRoot",
      "outputs": [],
      "stateMutability": "nonpayable",
      "type": "function"
    },
    {
      "inputs": [
        {
          "internalType": "bytes4",
          "name": "interfaceId",
          "type": "bytes4"
        }
      ],
      "name": "supportsInterface",
      "outputs": [
        {
          "internalType": "bool",
          "name": "",
          "type": "bool"
        }
      ],
      "stateMutability": "view",
      "type": "function"
    },
    {
      "inputs": [],
      "name": "symbol",
      "outputs": [
        {
          "internalType": "string",
          "name": "",
          "type": "string"
        }
      ],
      "stateMutability": "view",
      "type": "function"
    },
    {
      "inputs": [
        {
          "internalType": "uint256",
          "name": "tokenId",
          "type": "uint256"
        }
      ],
      "name": "tokenURI",
      "outputs": [
        {
          "internalType": "string",
          "name": "",
          "type": "string"
        }
      ],
      "stateMutability": "view",
      "type": "function"
    },
    {
      "inputs": [
        {
          "internalType": "address",
          "name": "from",
          "type": "address"
        },
        {
          "internalType": "address",
          "name": "to",
          "type": "address"
        },
        {
          "internalType": "uint256",
          "name": "tokenId",
          "type": "uint256"
        }
      ],
      "name": "transferFrom",
      "outputs": [],
      "stateMutability": "nonpayable",
      "type": "function"
    },
    {
      "inputs": [
        {
          "internalType": "address",
          "name": "newOwner",
          "type": "address"
        }
      ],
      "name": "transferOwnership",
      "outputs": [],
      "stateMutability": "nonpayable",
      "type": "function"
    },
    {
      "inputs": [],
      "name": "whitelistId",
      "outputs": [
        {
          "internalType": "uint256",
          "name": "",
          "type": "uint256"
        }
      ],
      "stateMutability": "view",
      "type": "function"
    },
    {
      "inputs": [],
      "name": "whitelistMerkleRoot",
      "outputs": [
        {
          "internalType": "bytes32",
          "name": "",
          "type": "bytes32"
        }
      ],
      "stateMutability": "view",
      "type": "function"
    },
    {
      "inputs": [],
      "name": "withdraw",
      "outputs": [],
      "stateMutability": "nonpayable",
      "type": "function"
    },
    {
      "inputs": [
        {
          "internalType": "contract IERC20",
          "name": "token",
          "type": "address"
        }
      ],
      "name": "withdrawTokens",
      "outputs": [],
      "stateMutability": "nonpayable",
      "type": "function"
    }
  ],
  "bytecode": "0x60806040526103e8600a556006600b55611770600c556103e9600d556001600f60006101000a81548160ff0219169083151502179055503480156200004357600080fd5b506040518060400160405280600c81526020017f4368617261637465724e465400000000000000000000000000000000000000008152506040518060400160405280600381526020017f4e465400000000000000000000000000000000000000000000000000000000008152508160009080519060200190620000c892919062000393565b508060019080519060200190620000e192919062000393565b50505062000104620000f86200014460201b60201c565b6200014c60201b60201c565b60016008819055506200012c604051806020016040528060008152506200021260201b60201c565b6200013e6001620002bd60201b60201c565b6200051d565b600033905090565b6000600760009054906101000a900473ffffffffffffffffffffffffffffffffffffffff16905081600760006101000a81548173ffffffffffffffffffffffffffffffffffffffff021916908373ffffffffffffffffffffffffffffffffffffffff1602179055508173ffffffffffffffffffffffffffffffffffffffff168173ffffffffffffffffffffffffffffffffffffffff167f8be0079c531659141344cd1fd0a4f28419497f9722a3daafe3b4186f6b6457e060405160405180910390a35050565b620002226200014460201b60201c565b73ffffffffffffffffffffffffffffffffffffffff16620002486200036960201b60201c565b73ffffffffffffffffffffffffffffffffffffffff1614620002a1576040517f08c379a0000000000000000000000000000000000000000000000000000000008152600401620002989062000485565b60405180910390fd5b8060099080519060200190620002b992919062000393565b5050565b620002cd6200014460201b60201c565b73ffffffffffffffffffffffffffffffffffffffff16620002f36200036960201b60201c565b73ffffffffffffffffffffffffffffffffffffffff16146200034c576040517f08c379a0000000000000000000000000000000000000000000000000000000008152600401620003439062000485565b60405180910390fd5b80600f60006101000a81548160ff02191690831515021790555050565b6000600760009054906101000a900473ffffffffffffffffffffffffffffffffffffffff16905090565b828054620003a190620004b8565b90600052602060002090601f016020900481019282620003c5576000855562000411565b82601f10620003e057805160ff191683800117855562000411565b8280016001018555821562000411579182015b8281111562000410578251825591602001919060010190620003f3565b5b50905062000420919062000424565b5090565b5b808211156200043f57600081600090555060010162000425565b5090565b600062000452602083620004a7565b91507f4f776e61626c653a2063616c6c6572206973206e6f7420746865206f776e65726000830152602082019050919050565b60006020820190508181036000830152620004a08162000443565b9050919050565b600082825260208201905092915050565b60006002820490506001821680620004d157607f821691505b60208210811415620004e857620004e7620004ee565b5b50919050565b7f4e487b7100000000000000000000000000000000000000000000000000000000600052602260045260246000fd5b6142fa806200052d6000396000f3fe6080604052600436106101e35760003560e01c806370a0823111610102578063bc912e1a11610095578063d30068a411610064578063d30068a4146106b0578063e68be24a146106db578063e985e9c514610706578063f2fde38b14610743576101e3565b8063bc912e1a146105f4578063bd32fb661461061f578063c87b56dd14610648578063cabadaa014610685576101e3565b806395d89b41116100d157806395d89b411461054c578063a22cb46514610577578063aa98e0c6146105a0578063b88d4fde146105cb576101e3565b806370a0823114610490578063715018a6146104cd5780638cc08025146104e45780638da5cb5b14610521576101e3565b80632db115441161017a57806349df728c1161014957806349df728c146103d657806355f804b3146103ff5780636352211e146104285780636c0360eb14610465576101e3565b80632db115441461035e5780633ccfd60b1461037a57806342842e0e1461039157806344d84381146103ba576101e3565b8063095ea7b3116101b6578063095ea7b3146102b85780630fab6197146102e157806316c38b3c1461030c57806323b872dd14610335576101e3565b806301ffc9a7146101e857806306fdde031461022557806307e89ec014610250578063081812fc1461027b575b600080fd5b3480156101f457600080fd5b5061020f600480360381019061020a9190612d0b565b61076c565b60405161021c9190613a23565b60405180910390f35b34801561023157600080fd5b5061023a61084e565b6040516102479190613a59565b60405180910390f35b34801561025c57600080fd5b506102656108e0565b6040516102729190613d9b565b60405180910390f35b34801561028757600080fd5b506102a2600480360381019061029d9190612dc7565b6108eb565b6040516102af9190613993565b60405180910390f35b3480156102c457600080fd5b506102df60048036038101906102da9190612c0f565b610970565b005b3480156102ed57600080fd5b506102f6610a88565b6040516103039190613d9b565b60405180910390f35b34801561031857600080fd5b50610333600480360381019061032e9190612c90565b610a8e565b005b34801561034157600080fd5b5061035c60048036038101906103579190612b09565b610b27565b005b61037860048036038101906103739190612dc7565b610b87565b005b34801561038657600080fd5b5061038f610d79565b005b34801561039d57600080fd5b506103b860048036038101906103b39190612b09565b610e44565b005b6103d460048036038101906103cf9190612c4b565b610e64565b005b3480156103e257600080fd5b506103fd60048036038101906103f89190612d5d565b611186565b005b34801561040b57600080fd5b5061042660048036038101906104219190612d86565b611321565b005b34801561043457600080fd5b5061044f600480360381019061044a9190612dc7565b6113b7565b60405161045c9190613993565b60405180910390f35b34801561047157600080fd5b5061047a611469565b6040516104879190613a59565b60405180910390f35b34801561049c57600080fd5b506104b760048036038101906104b29190612aa4565b6114f7565b6040516104c49190613d9b565b60405180910390f35b3480156104d957600080fd5b506104e26115af565b005b3480156104f057600080fd5b5061050b60048036038101906105069190612aa4565b611637565b6040516105189190613a23565b60405180910390f35b34801561052d57600080fd5b50610536611657565b6040516105439190613993565b60405180910390f35b34801561055857600080fd5b50610561611681565b60405161056e9190613a59565b60405180910390f35b34801561058357600080fd5b5061059e60048036038101906105999190612bd3565b611713565b005b3480156105ac57600080fd5b506105b5611729565b6040516105c29190613a3e565b60405180910390f35b3480156105d757600080fd5b506105f260048036038101906105ed9190612b58565b61172f565b005b34801561060057600080fd5b50610609611791565b6040516106169190613d9b565b60405180910390f35b34801561062b57600080fd5b5061064660048036038101906106419190612ce2565b61179c565b005b34801561065457600080fd5b5061066f600480360381019061066a9190612dc7565b611822565b60405161067c9190613a59565b60405180910390f35b34801561069157600080fd5b5061069a61189e565b6040516106a79190613d9b565b60405180910390f35b3480156106bc57600080fd5b506106c56118a4565b6040516106d29190613d9b565b60405180910390f35b3480156106e757600080fd5b506106f06118aa565b6040516106fd9190613d9b565b60405180910390f35b34801561071257600080fd5b5061072d60048036038101906107289190612acd565b6118b0565b60405161073a9190613a23565b60405180910390f35b34801561074f57600080fd5b5061076a60048036038101906107659190612aa4565b611944565b005b60007f80ac58cd000000000000000000000000000000000000000000000000000000007bffffffffffffffffffffffffffffffffffffffffffffffffffffffff1916827bffffffffffffffffffffffffffffffffffffffffffffffffffffffff1916148061083757507f5b5e139f000000000000000000000000000000000000000000000000000000007bffffffffffffffffffffffffffffffffffffffffffffffffffffffff1916827bffffffffffffffffffffffffffffffffffffffffffffffffffffffff1916145b80610847575061084682611a3c565b5b9050919050565b60606000805461085d90614086565b80601f016020809104026020016040519081016040528092919081815260200182805461088990614086565b80156108d65780601f106108ab576101008083540402835291602001916108d6565b820191906000526020600020905b8154815290600101906020018083116108b957829003601f168201915b5050505050905090565b66470de4df82000081565b60006108f682611aa6565b610935576040517f08c379a000000000000000000000000000000000000000000000000000000000815260040161092c90613c3b565b60405180910390fd5b6004600083815260200190815260200160002060009054906101000a900473ffffffffffffffffffffffffffffffffffffffff169050919050565b600061097b826113b7565b90508073ffffffffffffffffffffffffffffffffffffffff168373ffffffffffffffffffffffffffffffffffffffff1614156109ec576040517f08c379a00000000000000000000000000000000000000000000000000000000081526004016109e390613cbb565b60405180910390fd5b8073ffffffffffffffffffffffffffffffffffffffff16610a0b611b12565b73ffffffffffffffffffffffffffffffffffffffff161480610a3a5750610a3981610a34611b12565b6118b0565b5b610a79576040517f08c379a0000000000000000000000000000000000000000000000000000000008152600401610a7090613b5b565b60405180910390fd5b610a838383611b1a565b505050565b600d5481565b610a96611b12565b73ffffffffffffffffffffffffffffffffffffffff16610ab4611657565b73ffffffffffffffffffffffffffffffffffffffff1614610b0a576040517f08c379a0000000000000000000000000000000000000000000000000000000008152600401610b0190613c5b565b60405180910390fd5b80600f60006101000a81548160ff02191690831515021790555050565b610b38610b32611b12565b82611bd3565b610b77576040517f08c379a0000000000000000000000000000000000000000000000000000000008152600401610b6e90613cdb565b60405180910390fd5b610b82838383611cb1565b505050565b600f60009054906101000a900460ff1615610bd7576040517f08c379a0000000000000000000000000000000000000000000000000000000008152600401610bce90613b7b565b60405180910390fd5b66470de4df82000081348183610bed9190613f26565b14610c2d576040517f08c379a0000000000000000000000000000000000000000000000000000000008152600401610c2490613b9b565b60405180910390fd5b82600c5481600d54610c3f9190613e9f565b1115610c80576040517f08c379a0000000000000000000000000000000000000000000000000000000008152600401610c7790613d5b565b60405180910390fd5b60026008541415610cc6576040517f08c379a0000000000000000000000000000000000000000000000000000000008152600401610cbd90613d7b565b60405180910390fd5b60026008819055506005841115610d12576040517f08c379a0000000000000000000000000000000000000000000000000000000008152600401610d0990613d3b565b60405180910390fd5b60005b84811015610d6a57610d2933600d54611f0d565b610d3f600d54610d3a600d546120db565b612288565b600d6000815480929190610d52906140b8565b91905055508080610d62906140b8565b915050610d15565b50600160088190555050505050565b610d81611b12565b73ffffffffffffffffffffffffffffffffffffffff16610d9f611657565b73ffffffffffffffffffffffffffffffffffffffff1614610df5576040517f08c379a0000000000000000000000000000000000000000000000000000000008152600401610dec90613c5b565b60405180910390fd5b60004790503373ffffffffffffffffffffffffffffffffffffffff166108fc829081150290604051600060405180830381858888f19350505050158015610e40573d6000803e3d6000fd5b5050565b610e5f8383836040518060200160405280600081525061172f565b505050565b600f60009054906101000a900460ff1615610eb4576040517f08c379a0000000000000000000000000000000000000000000000000000000008152600401610eab90613b7b565b60405180910390fd5b8181600e54610f2b838380806020026020016040519081016040528093929190818152602001838360200280828437600081840152601f19601f820116905080830192505050505050508233604051602001610f10919061391d565b604051602081830303815290604052805190602001206122fc565b610f6a576040517f08c379a0000000000000000000000000000000000000000000000000000000008152600401610f6190613c7b565b60405180910390fd5b662386f26fc100006001348183610f819190613f26565b14610fc1576040517f08c379a0000000000000000000000000000000000000000000000000000000008152600401610fb890613b9b565b60405180910390fd5b60026008541415611007576040517f08c379a0000000000000000000000000000000000000000000000000000000008152600401610ffe90613d7b565b60405180910390fd5b6002600881905550600a54600b541115611056576040517f08c379a000000000000000000000000000000000000000000000000000000000815260040161104d90613cfb565b60405180910390fd5b601060003373ffffffffffffffffffffffffffffffffffffffff1673ffffffffffffffffffffffffffffffffffffffff16815260200190815260200160002060009054906101000a900460ff16156110e3576040517f08c379a00000000000000000000000000000000000000000000000000000000081526004016110da90613a9b565b60405180910390fd5b6110ef33600b54611f0d565b611105600b54611100600b546120db565b612288565b600b6000815480929190611118906140b8565b91905055506001601060003373ffffffffffffffffffffffffffffffffffffffff1673ffffffffffffffffffffffffffffffffffffffff16815260200190815260200160002060006101000a81548160ff021916908315150217905550600160088190555050505050505050565b61118e611b12565b73ffffffffffffffffffffffffffffffffffffffff166111ac611657565b73ffffffffffffffffffffffffffffffffffffffff1614611202576040517f08c379a00000000000000000000000000000000000000000000000000000000081526004016111f990613c5b565b60405180910390fd5b60008173ffffffffffffffffffffffffffffffffffffffff166370a08231306040518263ffffffff1660e01b815260040161123d9190613993565b60206040518083038186803b15801561125557600080fd5b505afa158015611269573d6000803e3d6000fd5b505050506040513d601f19601f8201168201806040525081019061128d9190612df0565b90508173ffffffffffffffffffffffffffffffffffffffff1663a9059cbb33836040518363ffffffff1660e01b81526004016112ca9291906139fa565b602060405180830381600087803b1580156112e457600080fd5b505af11580156112f8573d6000803e3d6000fd5b505050506040513d601f19601f8201168201806040525081019061131c9190612cb9565b505050565b611329611b12565b73ffffffffffffffffffffffffffffffffffffffff16611347611657565b73ffffffffffffffffffffffffffffffffffffffff161461139d576040517f08c379a000000000000000000000000000000000000000000000000000000000815260040161139490613c5b565b60405180910390fd5b80600990805190602001906113b392919061282a565b5050565b6000806002600084815260200190815260200160002060009054906101000a900473ffffffffffffffffffffffffffffffffffffffff169050600073ffffffffffffffffffffffffffffffffffffffff168173ffffffffffffffffffffffffffffffffffffffff161415611460576040517f08c379a000000000000000000000000000000000000000000000000000000000815260040161145790613bdb565b60405180910390fd5b80915050919050565b6009805461147690614086565b80601f01602080910402602001604051908101604052809291908181526020018280546114a290614086565b80156114ef5780601f106114c4576101008083540402835291602001916114ef565b820191906000526020600020905b8154815290600101906020018083116114d257829003601f168201915b505050505081565b60008073ffffffffffffffffffffffffffffffffffffffff168273ffffffffffffffffffffffffffffffffffffffff161415611568576040517f08c379a000000000000000000000000000000000000000000000000000000000815260040161155f90613bbb565b60405180910390fd5b600360008373ffffffffffffffffffffffffffffffffffffffff1673ffffffffffffffffffffffffffffffffffffffff168152602001908152602001600020549050919050565b6115b7611b12565b73ffffffffffffffffffffffffffffffffffffffff166115d5611657565b73ffffffffffffffffffffffffffffffffffffffff161461162b576040517f08c379a000000000000000000000000000000000000000000000000000000000815260040161162290613c5b565b60405180910390fd5b6116356000612313565b565b60106020528060005260406000206000915054906101000a900460ff1681565b6000600760009054906101000a900473ffffffffffffffffffffffffffffffffffffffff16905090565b60606001805461169090614086565b80601f01602080910402602001604051908101604052809291908181526020018280546116bc90614086565b80156117095780601f106116de57610100808354040283529160200191611709565b820191906000526020600020905b8154815290600101906020018083116116ec57829003601f168201915b5050505050905090565b61172561171e611b12565b83836123d9565b5050565b600e5481565b61174061173a611b12565b83611bd3565b61177f576040517f08c379a000000000000000000000000000000000000000000000000000000000815260040161177690613cdb565b60405180910390fd5b61178b84848484612546565b50505050565b662386f26fc1000081565b6117a4611b12565b73ffffffffffffffffffffffffffffffffffffffff166117c2611657565b73ffffffffffffffffffffffffffffffffffffffff1614611818576040517f08c379a000000000000000000000000000000000000000000000000000000000815260040161180f90613c5b565b60405180910390fd5b80600e8190555050565b606061182d82611aa6565b61186c576040517f08c379a000000000000000000000000000000000000000000000000000000000815260040161186390613d1b565b60405180910390fd5b6009611877836120db565b604051602001611888929190613964565b6040516020818303038152906040529050919050565b600c5481565b600a5481565b600b5481565b6000600560008473ffffffffffffffffffffffffffffffffffffffff1673ffffffffffffffffffffffffffffffffffffffff16815260200190815260200160002060008373ffffffffffffffffffffffffffffffffffffffff1673ffffffffffffffffffffffffffffffffffffffff16815260200190815260200160002060009054906101000a900460ff16905092915050565b61194c611b12565b73ffffffffffffffffffffffffffffffffffffffff1661196a611657565b73ffffffffffffffffffffffffffffffffffffffff16146119c0576040517f08c379a00000000000000000000000000000000000000000000000000000000081526004016119b790613c5b565b60405180910390fd5b600073ffffffffffffffffffffffffffffffffffffffff168173ffffffffffffffffffffffffffffffffffffffff161415611a30576040517f08c379a0000000000000000000000000000000000000000000000000000000008152600401611a2790613abb565b60405180910390fd5b611a3981612313565b50565b60007f01ffc9a7000000000000000000000000000000000000000000000000000000007bffffffffffffffffffffffffffffffffffffffffffffffffffffffff1916827bffffffffffffffffffffffffffffffffffffffffffffffffffffffff1916149050919050565b60008073ffffffffffffffffffffffffffffffffffffffff166002600084815260200190815260200160002060009054906101000a900473ffffffffffffffffffffffffffffffffffffffff1673ffffffffffffffffffffffffffffffffffffffff1614159050919050565b600033905090565b816004600083815260200190815260200160002060006101000a81548173ffffffffffffffffffffffffffffffffffffffff021916908373ffffffffffffffffffffffffffffffffffffffff160217905550808273ffffffffffffffffffffffffffffffffffffffff16611b8d836113b7565b73ffffffffffffffffffffffffffffffffffffffff167f8c5be1e5ebec7d5bd14f71427d1e84f3dd0314c0f7b2291e5b200ac8c7c3b92560405160405180910390a45050565b6000611bde82611aa6565b611c1d576040517f08c379a0000000000000000000000000000000000000000000000000000000008152600401611c1490613b3b565b60405180910390fd5b6000611c28836113b7565b90508073ffffffffffffffffffffffffffffffffffffffff168473ffffffffffffffffffffffffffffffffffffffff161480611c9757508373ffffffffffffffffffffffffffffffffffffffff16611c7f846108eb565b73ffffffffffffffffffffffffffffffffffffffff16145b80611ca85750611ca781856118b0565b5b91505092915050565b8273ffffffffffffffffffffffffffffffffffffffff16611cd1826113b7565b73ffffffffffffffffffffffffffffffffffffffff1614611d27576040517f08c379a0000000000000000000000000000000000000000000000000000000008152600401611d1e90613c9b565b60405180910390fd5b600073ffffffffffffffffffffffffffffffffffffffff168273ffffffffffffffffffffffffffffffffffffffff161415611d97576040517f08c379a0000000000000000000000000000000000000000000000000000000008152600401611d8e90613afb565b60405180910390fd5b611da28383836125a2565b611dad600082611b1a565b6001600360008573ffffffffffffffffffffffffffffffffffffffff1673ffffffffffffffffffffffffffffffffffffffff1681526020019081526020016000206000828254611dfd9190613f80565b925050819055506001600360008473ffffffffffffffffffffffffffffffffffffffff1673ffffffffffffffffffffffffffffffffffffffff1681526020019081526020016000206000828254611e549190613e9f565b92505081905550816002600083815260200190815260200160002060006101000a81548173ffffffffffffffffffffffffffffffffffffffff021916908373ffffffffffffffffffffffffffffffffffffffff160217905550808273ffffffffffffffffffffffffffffffffffffffff168473ffffffffffffffffffffffffffffffffffffffff167fddf252ad1be2c89b69c2b068fc378daa952ba7f163c4a11628f55a4df523b3ef60405160405180910390a4505050565b600073ffffffffffffffffffffffffffffffffffffffff168273ffffffffffffffffffffffffffffffffffffffff161415611f7d576040517f08c379a0000000000000000000000000000000000000000000000000000000008152600401611f7490613c1b565b60405180910390fd5b611f8681611aa6565b15611fc6576040517f08c379a0000000000000000000000000000000000000000000000000000000008152600401611fbd90613adb565b60405180910390fd5b611fd2600083836125a2565b6001600360008473ffffffffffffffffffffffffffffffffffffffff1673ffffffffffffffffffffffffffffffffffffffff16815260200190815260200160002060008282546120229190613e9f565b92505081905550816002600083815260200190815260200160002060006101000a81548173ffffffffffffffffffffffffffffffffffffffff021916908373ffffffffffffffffffffffffffffffffffffffff160217905550808273ffffffffffffffffffffffffffffffffffffffff16600073ffffffffffffffffffffffffffffffffffffffff167fddf252ad1be2c89b69c2b068fc378daa952ba7f163c4a11628f55a4df523b3ef60405160405180910390a45050565b60606000821415612123576040518060400160405280600181526020017f30000000000000000000000000000000000000000000000000000000000000008152509050612283565b600082905060005b6000821461215557808061213e906140b8565b915050600a8261214e9190613ef5565b915061212b565b60008167ffffffffffffffff811115612197577f4e487b7100000000000000000000000000000000000000000000000000000000600052604160045260246000fd5b6040519080825280601f01601f1916602001820160405280156121c95781602001600182028036833780820191505090505b5090505b6000851461227c576001826121e29190613f80565b9150600a856121f1919061412f565b60306121fd9190613e9f565b60f81b818381518110612239577f4e487b7100000000000000000000000000000000000000000000000000000000600052603260045260246000fd5b60200101907effffffffffffffffffffffffffffffffffffffffffffffffffffffffffffff1916908160001a905350600a856122759190613ef5565b94506121cd565b8093505050505b919050565b61229182611aa6565b6122d0576040517f08c379a00000000000000000000000000000000000000000000000000000000081526004016122c790613bfb565b60405180910390fd5b806006600084815260200190815260200160002090805190602001906122f792919061282a565b505050565b60008261230985846125a7565b1490509392505050565b6000600760009054906101000a900473ffffffffffffffffffffffffffffffffffffffff16905081600760006101000a81548173ffffffffffffffffffffffffffffffffffffffff021916908373ffffffffffffffffffffffffffffffffffffffff1602179055508173ffffffffffffffffffffffffffffffffffffffff168173ffffffffffffffffffffffffffffffffffffffff167f8be0079c531659141344cd1fd0a4f28419497f9722a3daafe3b4186f6b6457e060405160405180910390a35050565b8173ffffffffffffffffffffffffffffffffffffffff168373ffffffffffffffffffffffffffffffffffffffff161415612448576040517f08c379a000000000000000000000000000000000000000000000000000000000815260040161243f90613b1b565b60405180910390fd5b80600560008573ffffffffffffffffffffffffffffffffffffffff1673ffffffffffffffffffffffffffffffffffffffff16815260200190815260200160002060008473ffffffffffffffffffffffffffffffffffffffff1673ffffffffffffffffffffffffffffffffffffffff16815260200190815260200160002060006101000a81548160ff0219169083151502179055508173ffffffffffffffffffffffffffffffffffffffff168373ffffffffffffffffffffffffffffffffffffffff167f17307eab39ab6107e8899845ad3d59bd9653f200f220920489ca2b5937696c31836040516125399190613a23565b60405180910390a3505050565b612551848484611cb1565b61255d84848484612680565b61259c576040517f08c379a000000000000000000000000000000000000000000000000000000000815260040161259390613a7b565b60405180910390fd5b50505050565b505050565b60008082905060005b84518110156126755760008582815181106125f4577f4e487b7100000000000000000000000000000000000000000000000000000000600052603260045260246000fd5b60200260200101519050808311612635578281604051602001612618929190613938565b604051602081830303815290604052805190602001209250612661565b8083604051602001612648929190613938565b6040516020818303038152906040528051906020012092505b50808061266d906140b8565b9150506125b0565b508091505092915050565b60006126a18473ffffffffffffffffffffffffffffffffffffffff16612817565b1561280a578373ffffffffffffffffffffffffffffffffffffffff1663150b7a026126ca611b12565b8786866040518563ffffffff1660e01b81526004016126ec94939291906139ae565b602060405180830381600087803b15801561270657600080fd5b505af192505050801561273757506040513d601f19601f820116820180604052508101906127349190612d34565b60015b6127ba573d8060008114612767576040519150601f19603f3d011682016040523d82523d6000602084013e61276c565b606091505b506000815114156127b2576040517f08c379a00000000000000000000000000000000000000000000000000000000081526004016127a990613a7b565b60405180910390fd5b805181602001fd5b63150b7a0260e01b7bffffffffffffffffffffffffffffffffffffffffffffffffffffffff1916817bffffffffffffffffffffffffffffffffffffffffffffffffffffffff19161491505061280f565b600190505b949350505050565b600080823b905060008111915050919050565b82805461283690614086565b90600052602060002090601f016020900481019282612858576000855561289f565b82601f1061287157805160ff191683800117855561289f565b8280016001018555821561289f579182015b8281111561289e578251825591602001919060010190612883565b5b5090506128ac91906128b0565b5090565b5b808211156128c95760008160009055506001016128b1565b5090565b60006128e06128db84613de7565b613db6565b9050828152602081018484840111156128f857600080fd5b612903848285614044565b509392505050565b600061291e61291984613e17565b613db6565b90508281526020810184848401111561293657600080fd5b612941848285614044565b509392505050565b6000813590506129588161423a565b92915050565b60008083601f84011261297057600080fd5b8235905067ffffffffffffffff81111561298957600080fd5b6020830191508360208202830111156129a157600080fd5b9250929050565b6000813590506129b781614251565b92915050565b6000815190506129cc81614251565b92915050565b6000813590506129e181614268565b92915050565b6000813590506129f68161427f565b92915050565b600081519050612a0b8161427f565b92915050565b600082601f830112612a2257600080fd5b8135612a328482602086016128cd565b91505092915050565b600081359050612a4a81614296565b92915050565b600082601f830112612a6157600080fd5b8135612a7184826020860161290b565b91505092915050565b600081359050612a89816142ad565b92915050565b600081519050612a9e816142ad565b92915050565b600060208284031215612ab657600080fd5b6000612ac484828501612949565b91505092915050565b60008060408385031215612ae057600080fd5b6000612aee85828601612949565b9250506020612aff85828601612949565b9150509250929050565b600080600060608486031215612b1e57600080fd5b6000612b2c86828701612949565b9350506020612b3d86828701612949565b9250506040612b4e86828701612a7a565b9150509250925092565b60008060008060808587031215612b6e57600080fd5b6000612b7c87828801612949565b9450506020612b8d87828801612949565b9350506040612b9e87828801612a7a565b925050606085013567ffffffffffffffff811115612bbb57600080fd5b612bc787828801612a11565b91505092959194509250565b60008060408385031215612be657600080fd5b6000612bf485828601612949565b9250506020612c05858286016129a8565b9150509250929050565b60008060408385031215612c2257600080fd5b6000612c3085828601612949565b9250506020612c4185828601612a7a565b9150509250929050565b60008060208385031215612c5e57600080fd5b600083013567ffffffffffffffff811115612c7857600080fd5b612c848582860161295e565b92509250509250929050565b600060208284031215612ca257600080fd5b6000612cb0848285016129a8565b91505092915050565b600060208284031215612ccb57600080fd5b6000612cd9848285016129bd565b91505092915050565b600060208284031215612cf457600080fd5b6000612d02848285016129d2565b91505092915050565b600060208284031215612d1d57600080fd5b6000612d2b848285016129e7565b91505092915050565b600060208284031215612d4657600080fd5b6000612d54848285016129fc565b91505092915050565b600060208284031215612d6f57600080fd5b6000612d7d84828501612a3b565b91505092915050565b600060208284031215612d9857600080fd5b600082013567ffffffffffffffff811115612db257600080fd5b612dbe84828501612a50565b91505092915050565b600060208284031215612dd957600080fd5b6000612de784828501612a7a565b91505092915050565b600060208284031215612e0257600080fd5b6000612e1084828501612a8f565b91505092915050565b612e2281613fb4565b82525050565b612e39612e3482613fb4565b614101565b82525050565b612e4881613fc6565b82525050565b612e5781613fd2565b82525050565b612e6e612e6982613fd2565b614113565b82525050565b6000612e7f82613e5c565b612e898185613e72565b9350612e99818560208601614053565b612ea28161421c565b840191505092915050565b6000612eb882613e67565b612ec28185613e83565b9350612ed2818560208601614053565b612edb8161421c565b840191505092915050565b6000612ef182613e67565b612efb8185613e94565b9350612f0b818560208601614053565b80840191505092915050565b60008154612f2481614086565b612f2e8186613e94565b94506001821660008114612f495760018114612f5a57612f8d565b60ff19831686528186019350612f8d565b612f6385613e47565b60005b83811015612f8557815481890152600182019150602081019050612f66565b838801955050505b50505092915050565b6000612fa3603283613e83565b91507f4552433732313a207472616e7366657220746f206e6f6e20455243373231526560008301527f63656976657220696d706c656d656e74657200000000000000000000000000006020830152604082019050919050565b6000613009602e83613e83565b91507f4572726f723a204e465420697320616c7265616479206973436c61696d65642060008301527f627920746869732077616c6c65740000000000000000000000000000000000006020830152604082019050919050565b600061306f602683613e83565b91507f4f776e61626c653a206e6577206f776e657220697320746865207a65726f206160008301527f64647265737300000000000000000000000000000000000000000000000000006020830152604082019050919050565b60006130d5601c83613e83565b91507f4552433732313a20746f6b656e20616c7265616479206d696e746564000000006000830152602082019050919050565b6000613115602483613e83565b91507f4552433732313a207472616e7366657220746f20746865207a65726f2061646460008301527f72657373000000000000000000000000000000000000000000000000000000006020830152604082019050919050565b600061317b601983613e83565b91507f4552433732313a20617070726f766520746f2063616c6c6572000000000000006000830152602082019050919050565b60006131bb602c83613e83565b91507f4552433732313a206f70657261746f7220717565727920666f72206e6f6e657860008301527f697374656e7420746f6b656e00000000000000000000000000000000000000006020830152604082019050919050565b6000613221603883613e83565b91507f4552433732313a20617070726f76652063616c6c6572206973206e6f74206f7760008301527f6e6572206e6f7220617070726f76656420666f7220616c6c00000000000000006020830152604082019050919050565b6000613287604283613e83565b91507f4572726f723a20596f7520617265206e6f7420616c6c6f77656420746f206d6960008301527f6e7420756e74696c20746865206f776e657220737461727473204d696e74696e60208301527f67210000000000000000000000000000000000000000000000000000000000006040830152606082019050919050565b6000613313602383613e83565b91507f4572726f723a2053656e74204554482076616c756520697320494e434f52524560008301527f43542100000000000000000000000000000000000000000000000000000000006020830152604082019050919050565b6000613379602a83613e83565b91507f4552433732313a2062616c616e636520717565727920666f7220746865207a6560008301527f726f2061646472657373000000000000000000000000000000000000000000006020830152604082019050919050565b60006133df602983613e83565b91507f4552433732313a206f776e657220717565727920666f72206e6f6e657869737460008301527f656e7420746f6b656e00000000000000000000000000000000000000000000006020830152604082019050919050565b6000613445602e83613e83565b91507f45524337323155524953746f726167653a2055524920736574206f66206e6f6e60008301527f6578697374656e7420746f6b656e0000000000000000000000000000000000006020830152604082019050919050565b60006134ab602083613e83565b91507f4552433732313a206d696e7420746f20746865207a65726f20616464726573736000830152602082019050919050565b60006134eb602c83613e83565b91507f4552433732313a20617070726f76656420717565727920666f72206e6f6e657860008301527f697374656e7420746f6b656e00000000000000000000000000000000000000006020830152604082019050919050565b6000613551600583613e94565b91507f2e6a736f6e0000000000000000000000000000000000000000000000000000006000830152600582019050919050565b6000613591602083613e83565b91507f4f776e61626c653a2063616c6c6572206973206e6f7420746865206f776e65726000830152602082019050919050565b60006135d1602683613e83565b91507f4572726f723a2041646472657373206973204e4f542077686974656c6973746560008301527f64207965742100000000000000000000000000000000000000000000000000006020830152604082019050919050565b6000613637602983613e83565b91507f4552433732313a207472616e73666572206f6620746f6b656e2074686174206960008301527f73206e6f74206f776e00000000000000000000000000000000000000000000006020830152604082019050919050565b600061369d602183613e83565b91507f4552433732313a20617070726f76616c20746f2063757272656e74206f776e6560008301527f72000000000000000000000000000000000000000000000000000000000000006020830152604082019050919050565b6000613703603183613e83565b91507f4552433732313a207472616e736665722063616c6c6572206973206e6f74206f60008301527f776e6572206e6f7220617070726f7665640000000000000000000000000000006020830152604082019050919050565b6000613769602f83613e83565b91507f4572726f723a20416c7265616479206d696e746564206d6178696d756d206e7560008301527f6d626572206f6620746f6b656e732100000000000000000000000000000000006020830152604082019050919050565b60006137cf601c83613e83565b91507f4572726f723a20546f6b656e20646f6573206e6f7420657869737421000000006000830152602082019050919050565b600061380f603783613e83565b91507f4572726f723a20596f752063616e206d696e74206f6e6c79203520746f6b656e60008301527f73206d6178696d756d20706572207075726368617365210000000000000000006020830152604082019050919050565b6000613875602b83613e83565b91507f4572726f723a204e6f7420656e6f75676820746f6b656e732072656d61696e6960008301527f6e6720746f206d696e74210000000000000000000000000000000000000000006020830152604082019050919050565b60006138db601f83613e83565b91507f5265656e7472616e637947756172643a207265656e7472616e742063616c6c006000830152602082019050919050565b6139178161403a565b82525050565b60006139298284612e28565b60148201915081905092915050565b60006139448285612e5d565b6020820191506139548284612e5d565b6020820191508190509392505050565b60006139708285612f17565b915061397c8284612ee6565b915061398782613544565b91508190509392505050565b60006020820190506139a86000830184612e19565b92915050565b60006080820190506139c36000830187612e19565b6139d06020830186612e19565b6139dd604083018561390e565b81810360608301526139ef8184612e74565b905095945050505050565b6000604082019050613a0f6000830185612e19565b613a1c602083018461390e565b9392505050565b6000602082019050613a386000830184612e3f565b92915050565b6000602082019050613a536000830184612e4e565b92915050565b60006020820190508181036000830152613a738184612ead565b905092915050565b60006020820190508181036000830152613a9481612f96565b9050919050565b60006020820190508181036000830152613ab481612ffc565b9050919050565b60006020820190508181036000830152613ad481613062565b9050919050565b60006020820190508181036000830152613af4816130c8565b9050919050565b60006020820190508181036000830152613b1481613108565b9050919050565b60006020820190508181036000830152613b348161316e565b9050919050565b60006020820190508181036000830152613b54816131ae565b9050919050565b60006020820190508181036000830152613b7481613214565b9050919050565b60006020820190508181036000830152613b948161327a565b9050919050565b60006020820190508181036000830152613bb481613306565b9050919050565b60006020820190508181036000830152613bd48161336c565b9050919050565b60006020820190508181036000830152613bf4816133d2565b9050919050565b60006020820190508181036000830152613c1481613438565b9050919050565b60006020820190508181036000830152613c348161349e565b9050919050565b60006020820190508181036000830152613c54816134de565b9050919050565b60006020820190508181036000830152613c7481613584565b9050919050565b60006020820190508181036000830152613c94816135c4565b9050919050565b60006020820190508181036000830152613cb48161362a565b9050919050565b60006020820190508181036000830152613cd481613690565b9050919050565b60006020820190508181036000830152613cf4816136f6565b9050919050565b60006020820190508181036000830152613d148161375c565b9050919050565b60006020820190508181036000830152613d34816137c2565b9050919050565b60006020820190508181036000830152613d5481613802565b9050919050565b60006020820190508181036000830152613d7481613868565b9050919050565b60006020820190508181036000830152613d94816138ce565b9050919050565b6000602082019050613db0600083018461390e565b92915050565b6000604051905081810181811067ffffffffffffffff82111715613ddd57613ddc6141ed565b5b8060405250919050565b600067ffffffffffffffff821115613e0257613e016141ed565b5b601f19601f8301169050602081019050919050565b600067ffffffffffffffff821115613e3257613e316141ed565b5b601f19601f8301169050602081019050919050565b60008190508160005260206000209050919050565b600081519050919050565b600081519050919050565b600082825260208201905092915050565b600082825260208201905092915050565b600081905092915050565b6000613eaa8261403a565b9150613eb58361403a565b9250827fffffffffffffffffffffffffffffffffffffffffffffffffffffffffffffffff03821115613eea57613ee9614160565b5b828201905092915050565b6000613f008261403a565b9150613f0b8361403a565b925082613f1b57613f1a61418f565b5b828204905092915050565b6000613f318261403a565b9150613f3c8361403a565b9250817fffffffffffffffffffffffffffffffffffffffffffffffffffffffffffffffff0483118215151615613f7557613f74614160565b5b828202905092915050565b6000613f8b8261403a565b9150613f968361403a565b925082821015613fa957613fa8614160565b5b828203905092915050565b6000613fbf8261401a565b9050919050565b60008115159050919050565b6000819050919050565b60007fffffffff0000000000000000000000000000000000000000000000000000000082169050919050565b600061401382613fb4565b9050919050565b600073ffffffffffffffffffffffffffffffffffffffff82169050919050565b6000819050919050565b82818337600083830152505050565b60005b83811015614071578082015181840152602081019050614056565b83811115614080576000848401525b50505050565b6000600282049050600182168061409e57607f821691505b602082108114156140b2576140b16141be565b5b50919050565b60006140c38261403a565b91507fffffffffffffffffffffffffffffffffffffffffffffffffffffffffffffffff8214156140f6576140f5614160565b5b600182019050919050565b600061410c8261411d565b9050919050565b6000819050919050565b60006141288261422d565b9050919050565b600061413a8261403a565b91506141458361403a565b9250826141555761415461418f565b5b828206905092915050565b7f4e487b7100000000000000000000000000000000000000000000000000000000600052601160045260246000fd5b7f4e487b7100000000000000000000000000000000000000000000000000000000600052601260045260246000fd5b7f4e487b7100000000000000000000000000000000000000000000000000000000600052602260045260246000fd5b7f4e487b7100000000000000000000000000000000000000000000000000000000600052604160045260246000fd5b6000601f19601f8301169050919050565b60008160601b9050919050565b61424381613fb4565b811461424e57600080fd5b50565b61425a81613fc6565b811461426557600080fd5b50565b61427181613fd2565b811461427c57600080fd5b50565b61428881613fdc565b811461429357600080fd5b50565b61429f81614008565b81146142aa57600080fd5b50565b6142b68161403a565b81146142c157600080fd5b5056fea2646970667358221220a33482a2477bdace3106840bffadb2602d12b3f0fb00b477e681489b60f269dd64736f6c63430008000033",
  "linkReferences": {},
  "deployedLinkReferences": {}
}