{
  "_format": "hh-sol-artifact-1",
  "contractName": "CharacterNFT",
  "sourceName": "contracts/CharacterNFT.sol",
  "abi": [
    {
      "inputs": [],
      "stateMutability": "nonpayable",
      "type": "constructor"
    },
    {
      "anonymous": false,
      "inputs": [
        {
          "indexed": true,
          "internalType": "address",
          "name": "owner",
          "type": "address"
        },
        {
          "indexed": true,
          "internalType": "address",
          "name": "approved",
          "type": "address"
        },
        {
          "indexed": true,
          "internalType": "uint256",
          "name": "tokenId",
          "type": "uint256"
        }
      ],
      "name": "Approval",
      "type": "event"
    },
    {
      "anonymous": false,
      "inputs": [
        {
          "indexed": true,
          "internalType": "address",
          "name": "owner",
          "type": "address"
        },
        {
          "indexed": true,
          "internalType": "address",
          "name": "operator",
          "type": "address"
        },
        {
          "indexed": false,
          "internalType": "bool",
          "name": "approved",
          "type": "bool"
        }
      ],
      "name": "ApprovalForAll",
      "type": "event"
    },
    {
      "anonymous": false,
      "inputs": [
        {
          "indexed": true,
          "internalType": "address",
          "name": "previousOwner",
          "type": "address"
        },
        {
          "indexed": true,
          "internalType": "address",
          "name": "newOwner",
          "type": "address"
        }
      ],
      "name": "OwnershipTransferred",
      "type": "event"
    },
    {
      "anonymous": false,
      "inputs": [
        {
          "indexed": true,
          "internalType": "address",
          "name": "from",
          "type": "address"
        },
        {
          "indexed": true,
          "internalType": "address",
          "name": "to",
          "type": "address"
        },
        {
          "indexed": true,
          "internalType": "uint256",
          "name": "tokenId",
          "type": "uint256"
        }
      ],
      "name": "Transfer",
      "type": "event"
    },
    {
      "inputs": [],
      "name": "PUBLIC_SALE_PRICE",
      "outputs": [
        {
          "internalType": "uint256",
          "name": "",
          "type": "uint256"
        }
      ],
      "stateMutability": "view",
      "type": "function"
    },
    {
      "inputs": [],
      "name": "WHITELIST_SALE_PRICE",
      "outputs": [
        {
          "internalType": "uint256",
          "name": "",
          "type": "uint256"
        }
      ],
      "stateMutability": "view",
      "type": "function"
    },
    {
      "inputs": [
        {
          "internalType": "address",
          "name": "to",
          "type": "address"
        },
        {
          "internalType": "uint256",
          "name": "tokenId",
          "type": "uint256"
        }
      ],
      "name": "approve",
      "outputs": [],
      "stateMutability": "nonpayable",
      "type": "function"
    },
    {
      "inputs": [
        {
          "internalType": "address",
          "name": "owner",
          "type": "address"
        }
      ],
      "name": "balanceOf",
      "outputs": [
        {
          "internalType": "uint256",
          "name": "",
          "type": "uint256"
        }
      ],
      "stateMutability": "view",
      "type": "function"
    },
    {
      "inputs": [],
      "name": "baseURI",
      "outputs": [
        {
          "internalType": "string",
          "name": "",
          "type": "string"
        }
      ],
      "stateMutability": "view",
      "type": "function"
    },
    {
      "inputs": [
        {
          "internalType": "uint256",
          "name": "tokenId",
          "type": "uint256"
        }
      ],
      "name": "getApproved",
      "outputs": [
        {
          "internalType": "address",
          "name": "",
          "type": "address"
        }
      ],
      "stateMutability": "view",
      "type": "function"
    },
    {
      "inputs": [
        {
          "internalType": "address",
          "name": "owner",
          "type": "address"
        },
        {
          "internalType": "address",
          "name": "operator",
          "type": "address"
        }
      ],
      "name": "isApprovedForAll",
      "outputs": [
        {
          "internalType": "bool",
          "name": "",
          "type": "bool"
        }
      ],
      "stateMutability": "view",
      "type": "function"
    },
    {
      "inputs": [
        {
          "internalType": "address",
          "name": "",
          "type": "address"
        }
      ],
      "name": "isClaimed",
      "outputs": [
        {
          "internalType": "bool",
          "name": "",
          "type": "bool"
        }
      ],
      "stateMutability": "view",
      "type": "function"
    },
    {
      "inputs": [],
      "name": "isPaused",
      "outputs": [
        {
          "internalType": "bool",
          "name": "",
          "type": "bool"
        }
      ],
      "stateMutability": "view",
      "type": "function"
    },
    {
      "inputs": [],
      "name": "maxPublicMint",
      "outputs": [
        {
          "internalType": "uint256",
          "name": "",
          "type": "uint256"
        }
      ],
      "stateMutability": "view",
      "type": "function"
    },
    {
      "inputs": [],
      "name": "maxWhiteMint",
      "outputs": [
        {
          "internalType": "uint256",
          "name": "",
          "type": "uint256"
        }
      ],
      "stateMutability": "view",
      "type": "function"
    },
    {
      "inputs": [],
      "name": "name",
      "outputs": [
        {
          "internalType": "string",
          "name": "",
          "type": "string"
        }
      ],
      "stateMutability": "view",
      "type": "function"
    },
    {
      "inputs": [],
      "name": "owner",
      "outputs": [
        {
          "internalType": "address",
          "name": "",
          "type": "address"
        }
      ],
      "stateMutability": "view",
      "type": "function"
    },
    {
      "inputs": [
        {
          "internalType": "uint256",
          "name": "tokenId",
          "type": "uint256"
        }
      ],
      "name": "ownerOf",
      "outputs": [
        {
          "internalType": "address",
          "name": "",
          "type": "address"
        }
      ],
      "stateMutability": "view",
      "type": "function"
    },
    {
      "inputs": [
        {
          "internalType": "uint256",
          "name": "numberOfTokens",
          "type": "uint256"
        }
      ],
      "name": "publicMint",
      "outputs": [],
      "stateMutability": "payable",
      "type": "function"
    },
    {
      "inputs": [],
      "name": "publicMintId",
      "outputs": [
        {
          "internalType": "uint256",
          "name": "",
          "type": "uint256"
        }
      ],
      "stateMutability": "view",
      "type": "function"
    },
    {
      "inputs": [],
      "name": "renounceOwnership",
      "outputs": [],
      "stateMutability": "nonpayable",
      "type": "function"
    },
    {
      "inputs": [
        {
          "internalType": "address",
          "name": "_address",
          "type": "address"
        }
      ],
      "name": "resetClaim",
      "outputs": [],
      "stateMutability": "nonpayable",
      "type": "function"
    },
    {
      "inputs": [
        {
          "internalType": "address",
          "name": "from",
          "type": "address"
        },
        {
          "internalType": "address",
          "name": "to",
          "type": "address"
        },
        {
          "internalType": "uint256",
          "name": "tokenId",
          "type": "uint256"
        }
      ],
      "name": "safeTransferFrom",
      "outputs": [],
      "stateMutability": "nonpayable",
      "type": "function"
    },
    {
      "inputs": [
        {
          "internalType": "address",
          "name": "from",
          "type": "address"
        },
        {
          "internalType": "address",
          "name": "to",
          "type": "address"
        },
        {
          "internalType": "uint256",
          "name": "tokenId",
          "type": "uint256"
        },
        {
          "internalType": "bytes",
          "name": "_data",
          "type": "bytes"
        }
      ],
      "name": "safeTransferFrom",
      "outputs": [],
      "stateMutability": "nonpayable",
      "type": "function"
    },
    {
      "inputs": [
        {
          "internalType": "address",
          "name": "operator",
          "type": "address"
        },
        {
          "internalType": "bool",
          "name": "approved",
          "type": "bool"
        }
      ],
      "name": "setApprovalForAll",
      "outputs": [],
      "stateMutability": "nonpayable",
      "type": "function"
    },
    {
      "inputs": [
        {
          "internalType": "string",
          "name": "_baseURI",
          "type": "string"
        }
      ],
      "name": "setBaseURI",
      "outputs": [],
      "stateMutability": "nonpayable",
      "type": "function"
    },
    {
      "inputs": [
        {
          "internalType": "bool",
          "name": "_paused",
          "type": "bool"
        }
      ],
      "name": "setPaused",
      "outputs": [],
      "stateMutability": "nonpayable",
      "type": "function"
    },
    {
      "inputs": [
        {
          "internalType": "uint256",
          "name": "_price",
          "type": "uint256"
        }
      ],
      "name": "setPublicSalePrice",
      "outputs": [],
      "stateMutability": "nonpayable",
      "type": "function"
    },
    {
      "inputs": [
        {
          "internalType": "bytes32",
          "name": "merkleRoot",
          "type": "bytes32"
        }
      ],
      "name": "setWhitelistMerkleRoot",
      "outputs": [],
      "stateMutability": "nonpayable",
      "type": "function"
    },
    {
      "inputs": [
        {
          "internalType": "uint256",
          "name": "_price",
          "type": "uint256"
        }
      ],
      "name": "setWhitelistSalePrice",
      "outputs": [],
      "stateMutability": "nonpayable",
      "type": "function"
    },
    {
      "inputs": [
        {
          "internalType": "bytes4",
          "name": "interfaceId",
          "type": "bytes4"
        }
      ],
      "name": "supportsInterface",
      "outputs": [
        {
          "internalType": "bool",
          "name": "",
          "type": "bool"
        }
      ],
      "stateMutability": "view",
      "type": "function"
    },
    {
      "inputs": [],
      "name": "symbol",
      "outputs": [
        {
          "internalType": "string",
          "name": "",
          "type": "string"
        }
      ],
      "stateMutability": "view",
      "type": "function"
    },
    {
      "inputs": [
        {
          "internalType": "uint256",
          "name": "tokenId",
          "type": "uint256"
        }
      ],
      "name": "tokenURI",
      "outputs": [
        {
          "internalType": "string",
          "name": "",
          "type": "string"
        }
      ],
      "stateMutability": "view",
      "type": "function"
    },
    {
      "inputs": [
        {
          "internalType": "address",
          "name": "from",
          "type": "address"
        },
        {
          "internalType": "address",
          "name": "to",
          "type": "address"
        },
        {
          "internalType": "uint256",
          "name": "tokenId",
          "type": "uint256"
        }
      ],
      "name": "transferFrom",
      "outputs": [],
      "stateMutability": "nonpayable",
      "type": "function"
    },
    {
      "inputs": [
        {
          "internalType": "address",
          "name": "newOwner",
          "type": "address"
        }
      ],
      "name": "transferOwnership",
      "outputs": [],
      "stateMutability": "nonpayable",
      "type": "function"
    },
    {
      "inputs": [],
      "name": "whitelistMerkleRoot",
      "outputs": [
        {
          "internalType": "bytes32",
          "name": "",
          "type": "bytes32"
        }
      ],
      "stateMutability": "view",
      "type": "function"
    },
    {
      "inputs": [
        {
          "internalType": "bytes32[]",
          "name": "merkleProof",
          "type": "bytes32[]"
        }
      ],
      "name": "whitelistMint",
      "outputs": [],
      "stateMutability": "payable",
      "type": "function"
    },
    {
      "inputs": [],
      "name": "whitelistMintId",
      "outputs": [
        {
          "internalType": "uint256",
          "name": "",
          "type": "uint256"
        }
      ],
      "stateMutability": "view",
      "type": "function"
    },
    {
      "inputs": [],
      "name": "withdraw",
      "outputs": [],
      "stateMutability": "nonpayable",
      "type": "function"
    },
    {
      "inputs": [
        {
          "internalType": "contract IERC20",
          "name": "token",
          "type": "address"
        }
      ],
      "name": "withdrawTokens",
      "outputs": [],
      "stateMutability": "nonpayable",
      "type": "function"
    }
  ],
  "bytecode": "0x60806040526103e8600a556001600b55662386f26fc10000600c55611770600d556103e9600e5566470de4df820000600f556001601160006101000a81548160ff0219169083151502179055503480156200005957600080fd5b506040518060400160405280600c81526020017f4368617261637465724e465400000000000000000000000000000000000000008152506040518060400160405280600381526020017f4e465400000000000000000000000000000000000000000000000000000000008152508160009080519060200190620000de929190620003a9565b508060019080519060200190620000f7929190620003a9565b5050506200011a6200010e6200015a60201b60201c565b6200016260201b60201c565b600160088190555062000142604051806020016040528060008152506200022860201b60201c565b620001546001620002d360201b60201c565b62000533565b600033905090565b6000600760009054906101000a900473ffffffffffffffffffffffffffffffffffffffff16905081600760006101000a81548173ffffffffffffffffffffffffffffffffffffffff021916908373ffffffffffffffffffffffffffffffffffffffff1602179055508173ffffffffffffffffffffffffffffffffffffffff168173ffffffffffffffffffffffffffffffffffffffff167f8be0079c531659141344cd1fd0a4f28419497f9722a3daafe3b4186f6b6457e060405160405180910390a35050565b620002386200015a60201b60201c565b73ffffffffffffffffffffffffffffffffffffffff166200025e6200037f60201b60201c565b73ffffffffffffffffffffffffffffffffffffffff1614620002b7576040517f08c379a0000000000000000000000000000000000000000000000000000000008152600401620002ae906200049b565b60405180910390fd5b8060099080519060200190620002cf929190620003a9565b5050565b620002e36200015a60201b60201c565b73ffffffffffffffffffffffffffffffffffffffff16620003096200037f60201b60201c565b73ffffffffffffffffffffffffffffffffffffffff161462000362576040517f08c379a000000000000000000000000000000000000000000000000000000000815260040162000359906200049b565b60405180910390fd5b80601160006101000a81548160ff02191690831515021790555050565b6000600760009054906101000a900473ffffffffffffffffffffffffffffffffffffffff16905090565b828054620003b790620004ce565b90600052602060002090601f016020900481019282620003db576000855562000427565b82601f10620003f657805160ff191683800117855562000427565b8280016001018555821562000427579182015b828111156200042657825182559160200191906001019062000409565b5b5090506200043691906200043a565b5090565b5b80821115620004555760008160009055506001016200043b565b5090565b600062000468602083620004bd565b91507f4f776e61626c653a2063616c6c6572206973206e6f7420746865206f776e65726000830152602082019050919050565b60006020820190508181036000830152620004b68162000459565b9050919050565b600082825260208201905092915050565b60006002820490506001821680620004e757607f821691505b60208210811415620004fe57620004fd62000504565b5b50919050565b7f4e487b7100000000000000000000000000000000000000000000000000000000600052602260045260246000fd5b6145ae80620005436000396000f3fe60806040526004361061020f5760003560e01c806370a0823111610118578063b187bd26116100a0578063c87b56dd1161006f578063c87b56dd14610745578063cabadaa014610782578063e985e9c5146107ad578063f2fde38b146107ea578063fd1ccd4f146108135761020f565b8063b187bd261461069d578063b88d4fde146106c8578063bc912e1a146106f1578063bd32fb661461071c5761020f565b80638da5cb5b116100e75780638da5cb5b146105c857806395d89b41146105f35780639920622b1461061e578063a22cb46514610649578063aa98e0c6146106725761020f565b806370a082311461050e578063715018a61461054b578063791a2519146105625780638cc080251461058b5761020f565b80633515fbdb1161019b57806349df728c1161016a57806349df728c1461042b57806355f804b3146104545780636352211e1461047d5780636c0360eb146104ba578063700805e3146104e55761020f565b80633515fbdb146103a6578063372f657c146103cf5780633ccfd60b146103eb57806342842e0e146104025761020f565b8063095ea7b3116101e2578063095ea7b3146102e45780630fab61971461030d57806316c38b3c1461033857806323b872dd146103615780632db115441461038a5761020f565b806301ffc9a71461021457806306fdde031461025157806307e89ec01461027c578063081812fc146102a7575b600080fd5b34801561022057600080fd5b5061023b60048036038101906102369190612fbf565b61083e565b6040516102489190613cd7565b60405180910390f35b34801561025d57600080fd5b50610266610920565b6040516102739190613d0d565b60405180910390f35b34801561028857600080fd5b506102916109b2565b60405161029e919061404f565b60405180910390f35b3480156102b357600080fd5b506102ce60048036038101906102c9919061307b565b6109b8565b6040516102db9190613c47565b60405180910390f35b3480156102f057600080fd5b5061030b60048036038101906103069190612ec3565b610a3d565b005b34801561031957600080fd5b50610322610b55565b60405161032f919061404f565b60405180910390f35b34801561034457600080fd5b5061035f600480360381019061035a9190612f44565b610b5b565b005b34801561036d57600080fd5b5061038860048036038101906103839190612dbd565b610bf4565b005b6103a4600480360381019061039f919061307b565b610c54565b005b3480156103b257600080fd5b506103cd60048036038101906103c8919061307b565b610e41565b005b6103e960048036038101906103e49190612eff565b610ec7565b005b3480156103f757600080fd5b506104006111e4565b005b34801561040e57600080fd5b5061042960048036038101906104249190612dbd565b6112af565b005b34801561043757600080fd5b50610452600480360381019061044d9190613011565b6112cf565b005b34801561046057600080fd5b5061047b6004803603810190610476919061303a565b61146a565b005b34801561048957600080fd5b506104a4600480360381019061049f919061307b565b611500565b6040516104b19190613c47565b60405180910390f35b3480156104c657600080fd5b506104cf6115b2565b6040516104dc9190613d0d565b60405180910390f35b3480156104f157600080fd5b5061050c60048036038101906105079190612d58565b611640565b005b34801561051a57600080fd5b5061053560048036038101906105309190612d58565b611717565b604051610542919061404f565b60405180910390f35b34801561055757600080fd5b506105606117cf565b005b34801561056e57600080fd5b506105896004803603810190610584919061307b565b611857565b005b34801561059757600080fd5b506105b260048036038101906105ad9190612d58565b6118dd565b6040516105bf9190613cd7565b60405180910390f35b3480156105d457600080fd5b506105dd6118fd565b6040516105ea9190613c47565b60405180910390f35b3480156105ff57600080fd5b50610608611927565b6040516106159190613d0d565b60405180910390f35b34801561062a57600080fd5b506106336119b9565b604051610640919061404f565b60405180910390f35b34801561065557600080fd5b50610670600480360381019061066b9190612e87565b6119bf565b005b34801561067e57600080fd5b506106876119d5565b6040516106949190613cf2565b60405180910390f35b3480156106a957600080fd5b506106b26119db565b6040516106bf9190613cd7565b60405180910390f35b3480156106d457600080fd5b506106ef60048036038101906106ea9190612e0c565b6119ee565b005b3480156106fd57600080fd5b50610706611a50565b604051610713919061404f565b60405180910390f35b34801561072857600080fd5b50610743600480360381019061073e9190612f96565b611a56565b005b34801561075157600080fd5b5061076c6004803603810190610767919061307b565b611adc565b6040516107799190613d0d565b60405180910390f35b34801561078e57600080fd5b50610797611b58565b6040516107a4919061404f565b60405180910390f35b3480156107b957600080fd5b506107d460048036038101906107cf9190612d81565b611b5e565b6040516107e19190613cd7565b60405180910390f35b3480156107f657600080fd5b50610811600480360381019061080c9190612d58565b611bf2565b005b34801561081f57600080fd5b50610828611cea565b604051610835919061404f565b60405180910390f35b60007f80ac58cd000000000000000000000000000000000000000000000000000000007bffffffffffffffffffffffffffffffffffffffffffffffffffffffff1916827bffffffffffffffffffffffffffffffffffffffffffffffffffffffff1916148061090957507f5b5e139f000000000000000000000000000000000000000000000000000000007bffffffffffffffffffffffffffffffffffffffffffffffffffffffff1916827bffffffffffffffffffffffffffffffffffffffffffffffffffffffff1916145b80610919575061091882611cf0565b5b9050919050565b60606000805461092f9061433a565b80601f016020809104026020016040519081016040528092919081815260200182805461095b9061433a565b80156109a85780601f1061097d576101008083540402835291602001916109a8565b820191906000526020600020905b81548152906001019060200180831161098b57829003601f168201915b5050505050905090565b600f5481565b60006109c382611d5a565b610a02576040517f08c379a00000000000000000000000000000000000000000000000000000000081526004016109f990613ecf565b60405180910390fd5b6004600083815260200190815260200160002060009054906101000a900473ffffffffffffffffffffffffffffffffffffffff169050919050565b6000610a4882611500565b90508073ffffffffffffffffffffffffffffffffffffffff168373ffffffffffffffffffffffffffffffffffffffff161415610ab9576040517f08c379a0000000000000000000000000000000000000000000000000000000008152600401610ab090613f6f565b60405180910390fd5b8073ffffffffffffffffffffffffffffffffffffffff16610ad8611dc6565b73ffffffffffffffffffffffffffffffffffffffff161480610b075750610b0681610b01611dc6565b611b5e565b5b610b46576040517f08c379a0000000000000000000000000000000000000000000000000000000008152600401610b3d90613def565b60405180910390fd5b610b508383611dce565b505050565b600e5481565b610b63611dc6565b73ffffffffffffffffffffffffffffffffffffffff16610b816118fd565b73ffffffffffffffffffffffffffffffffffffffff1614610bd7576040517f08c379a0000000000000000000000000000000000000000000000000000000008152600401610bce90613eef565b60405180910390fd5b80601160006101000a81548160ff02191690831515021790555050565b610c05610bff611dc6565b82611e87565b610c44576040517f08c379a0000000000000000000000000000000000000000000000000000000008152600401610c3b90613f8f565b60405180910390fd5b610c4f838383611f65565b505050565b601160009054906101000a900460ff1615610ca4576040517f08c379a0000000000000000000000000000000000000000000000000000000008152600401610c9b90613e0f565b60405180910390fd5b600f5481348183610cb591906141da565b14610cf5576040517f08c379a0000000000000000000000000000000000000000000000000000000008152600401610cec90613e2f565b60405180910390fd5b82600d5481600e54610d079190614153565b1115610d48576040517f08c379a0000000000000000000000000000000000000000000000000000000008152600401610d3f9061400f565b60405180910390fd5b60026008541415610d8e576040517f08c379a0000000000000000000000000000000000000000000000000000000008152600401610d859061402f565b60405180910390fd5b60026008819055506005841115610dda576040517f08c379a0000000000000000000000000000000000000000000000000000000008152600401610dd190613fef565b60405180910390fd5b60005b84811015610e3257610df133600e546121c1565b610e07600e54610e02600e5461238f565b61253c565b600e6000815480929190610e1a9061436c565b91905055508080610e2a9061436c565b915050610ddd565b50600160088190555050505050565b610e49611dc6565b73ffffffffffffffffffffffffffffffffffffffff16610e676118fd565b73ffffffffffffffffffffffffffffffffffffffff1614610ebd576040517f08c379a0000000000000000000000000000000000000000000000000000000008152600401610eb490613eef565b60405180910390fd5b80600c8190555050565b601160009054906101000a900460ff1615610f17576040517f08c379a0000000000000000000000000000000000000000000000000000000008152600401610f0e90613e0f565b60405180910390fd5b8181601054610f8e838380806020026020016040519081016040528093929190818152602001838360200280828437600081840152601f19601f820116905080830192505050505050508233604051602001610f739190613bd1565b604051602081830303815290604052805190602001206125b0565b610fcd576040517f08c379a0000000000000000000000000000000000000000000000000000000008152600401610fc490613f0f565b60405180910390fd5b600c546001348183610fdf91906141da565b1461101f576040517f08c379a000000000000000000000000000000000000000000000000000000000815260040161101690613e2f565b60405180910390fd5b60026008541415611065576040517f08c379a000000000000000000000000000000000000000000000000000000000815260040161105c9061402f565b60405180910390fd5b6002600881905550600a54600b5411156110b4576040517f08c379a00000000000000000000000000000000000000000000000000000000081526004016110ab90613faf565b60405180910390fd5b601260003373ffffffffffffffffffffffffffffffffffffffff1673ffffffffffffffffffffffffffffffffffffffff16815260200190815260200160002060009054906101000a900460ff1615611141576040517f08c379a000000000000000000000000000000000000000000000000000000000815260040161113890613f4f565b60405180910390fd5b61114d33600b546121c1565b611163600b5461115e600b5461238f565b61253c565b600b60008154809291906111769061436c565b91905055506001601260003373ffffffffffffffffffffffffffffffffffffffff1673ffffffffffffffffffffffffffffffffffffffff16815260200190815260200160002060006101000a81548160ff021916908315150217905550600160088190555050505050505050565b6111ec611dc6565b73ffffffffffffffffffffffffffffffffffffffff1661120a6118fd565b73ffffffffffffffffffffffffffffffffffffffff1614611260576040517f08c379a000000000000000000000000000000000000000000000000000000000815260040161125790613eef565b60405180910390fd5b60004790503373ffffffffffffffffffffffffffffffffffffffff166108fc829081150290604051600060405180830381858888f193505050501580156112ab573d6000803e3d6000fd5b5050565b6112ca838383604051806020016040528060008152506119ee565b505050565b6112d7611dc6565b73ffffffffffffffffffffffffffffffffffffffff166112f56118fd565b73ffffffffffffffffffffffffffffffffffffffff161461134b576040517f08c379a000000000000000000000000000000000000000000000000000000000815260040161134290613eef565b60405180910390fd5b60008173ffffffffffffffffffffffffffffffffffffffff166370a08231306040518263ffffffff1660e01b81526004016113869190613c47565b60206040518083038186803b15801561139e57600080fd5b505afa1580156113b2573d6000803e3d6000fd5b505050506040513d601f19601f820116820180604052508101906113d691906130a4565b90508173ffffffffffffffffffffffffffffffffffffffff1663a9059cbb33836040518363ffffffff1660e01b8152600401611413929190613cae565b602060405180830381600087803b15801561142d57600080fd5b505af1158015611441573d6000803e3d6000fd5b505050506040513d601f19601f820116820180604052508101906114659190612f6d565b505050565b611472611dc6565b73ffffffffffffffffffffffffffffffffffffffff166114906118fd565b73ffffffffffffffffffffffffffffffffffffffff16146114e6576040517f08c379a00000000000000000000000000000000000000000000000000000000081526004016114dd90613eef565b60405180910390fd5b80600990805190602001906114fc929190612ade565b5050565b6000806002600084815260200190815260200160002060009054906101000a900473ffffffffffffffffffffffffffffffffffffffff169050600073ffffffffffffffffffffffffffffffffffffffff168173ffffffffffffffffffffffffffffffffffffffff1614156115a9576040517f08c379a00000000000000000000000000000000000000000000000000000000081526004016115a090613e6f565b60405180910390fd5b80915050919050565b600980546115bf9061433a565b80601f01602080910402602001604051908101604052809291908181526020018280546115eb9061433a565b80156116385780601f1061160d57610100808354040283529160200191611638565b820191906000526020600020905b81548152906001019060200180831161161b57829003601f168201915b505050505081565b611648611dc6565b73ffffffffffffffffffffffffffffffffffffffff166116666118fd565b73ffffffffffffffffffffffffffffffffffffffff16146116bc576040517f08c379a00000000000000000000000000000000000000000000000000000000081526004016116b390613eef565b60405180910390fd5b6000601260008373ffffffffffffffffffffffffffffffffffffffff1673ffffffffffffffffffffffffffffffffffffffff16815260200190815260200160002060006101000a81548160ff02191690831515021790555050565b60008073ffffffffffffffffffffffffffffffffffffffff168273ffffffffffffffffffffffffffffffffffffffff161415611788576040517f08c379a000000000000000000000000000000000000000000000000000000000815260040161177f90613e4f565b60405180910390fd5b600360008373ffffffffffffffffffffffffffffffffffffffff1673ffffffffffffffffffffffffffffffffffffffff168152602001908152602001600020549050919050565b6117d7611dc6565b73ffffffffffffffffffffffffffffffffffffffff166117f56118fd565b73ffffffffffffffffffffffffffffffffffffffff161461184b576040517f08c379a000000000000000000000000000000000000000000000000000000000815260040161184290613eef565b60405180910390fd5b61185560006125c7565b565b61185f611dc6565b73ffffffffffffffffffffffffffffffffffffffff1661187d6118fd565b73ffffffffffffffffffffffffffffffffffffffff16146118d3576040517f08c379a00000000000000000000000000000000000000000000000000000000081526004016118ca90613eef565b60405180910390fd5b80600f8190555050565b60126020528060005260406000206000915054906101000a900460ff1681565b6000600760009054906101000a900473ffffffffffffffffffffffffffffffffffffffff16905090565b6060600180546119369061433a565b80601f01602080910402602001604051908101604052809291908181526020018280546119629061433a565b80156119af5780601f10611984576101008083540402835291602001916119af565b820191906000526020600020905b81548152906001019060200180831161199257829003601f168201915b5050505050905090565b600a5481565b6119d16119ca611dc6565b838361268d565b5050565b60105481565b601160009054906101000a900460ff1681565b6119ff6119f9611dc6565b83611e87565b611a3e576040517f08c379a0000000000000000000000000000000000000000000000000000000008152600401611a3590613f8f565b60405180910390fd5b611a4a848484846127fa565b50505050565b600c5481565b611a5e611dc6565b73ffffffffffffffffffffffffffffffffffffffff16611a7c6118fd565b73ffffffffffffffffffffffffffffffffffffffff1614611ad2576040517f08c379a0000000000000000000000000000000000000000000000000000000008152600401611ac990613eef565b60405180910390fd5b8060108190555050565b6060611ae782611d5a565b611b26576040517f08c379a0000000000000000000000000000000000000000000000000000000008152600401611b1d90613fcf565b60405180910390fd5b6009611b318361238f565b604051602001611b42929190613c18565b6040516020818303038152906040529050919050565b600d5481565b6000600560008473ffffffffffffffffffffffffffffffffffffffff1673ffffffffffffffffffffffffffffffffffffffff16815260200190815260200160002060008373ffffffffffffffffffffffffffffffffffffffff1673ffffffffffffffffffffffffffffffffffffffff16815260200190815260200160002060009054906101000a900460ff16905092915050565b611bfa611dc6565b73ffffffffffffffffffffffffffffffffffffffff16611c186118fd565b73ffffffffffffffffffffffffffffffffffffffff1614611c6e576040517f08c379a0000000000000000000000000000000000000000000000000000000008152600401611c6590613eef565b60405180910390fd5b600073ffffffffffffffffffffffffffffffffffffffff168173ffffffffffffffffffffffffffffffffffffffff161415611cde576040517f08c379a0000000000000000000000000000000000000000000000000000000008152600401611cd590613d4f565b60405180910390fd5b611ce7816125c7565b50565b600b5481565b60007f01ffc9a7000000000000000000000000000000000000000000000000000000007bffffffffffffffffffffffffffffffffffffffffffffffffffffffff1916827bffffffffffffffffffffffffffffffffffffffffffffffffffffffff1916149050919050565b60008073ffffffffffffffffffffffffffffffffffffffff166002600084815260200190815260200160002060009054906101000a900473ffffffffffffffffffffffffffffffffffffffff1673ffffffffffffffffffffffffffffffffffffffff1614159050919050565b600033905090565b816004600083815260200190815260200160002060006101000a81548173ffffffffffffffffffffffffffffffffffffffff021916908373ffffffffffffffffffffffffffffffffffffffff160217905550808273ffffffffffffffffffffffffffffffffffffffff16611e4183611500565b73ffffffffffffffffffffffffffffffffffffffff167f8c5be1e5ebec7d5bd14f71427d1e84f3dd0314c0f7b2291e5b200ac8c7c3b92560405160405180910390a45050565b6000611e9282611d5a565b611ed1576040517f08c379a0000000000000000000000000000000000000000000000000000000008152600401611ec890613dcf565b60405180910390fd5b6000611edc83611500565b90508073ffffffffffffffffffffffffffffffffffffffff168473ffffffffffffffffffffffffffffffffffffffff161480611f4b57508373ffffffffffffffffffffffffffffffffffffffff16611f33846109b8565b73ffffffffffffffffffffffffffffffffffffffff16145b80611f5c5750611f5b8185611b5e565b5b91505092915050565b8273ffffffffffffffffffffffffffffffffffffffff16611f8582611500565b73ffffffffffffffffffffffffffffffffffffffff1614611fdb576040517f08c379a0000000000000000000000000000000000000000000000000000000008152600401611fd290613f2f565b60405180910390fd5b600073ffffffffffffffffffffffffffffffffffffffff168273ffffffffffffffffffffffffffffffffffffffff16141561204b576040517f08c379a000000000000000000000000000000000000000000000000000000000815260040161204290613d8f565b60405180910390fd5b612056838383612856565b612061600082611dce565b6001600360008573ffffffffffffffffffffffffffffffffffffffff1673ffffffffffffffffffffffffffffffffffffffff16815260200190815260200160002060008282546120b19190614234565b925050819055506001600360008473ffffffffffffffffffffffffffffffffffffffff1673ffffffffffffffffffffffffffffffffffffffff16815260200190815260200160002060008282546121089190614153565b92505081905550816002600083815260200190815260200160002060006101000a81548173ffffffffffffffffffffffffffffffffffffffff021916908373ffffffffffffffffffffffffffffffffffffffff160217905550808273ffffffffffffffffffffffffffffffffffffffff168473ffffffffffffffffffffffffffffffffffffffff167fddf252ad1be2c89b69c2b068fc378daa952ba7f163c4a11628f55a4df523b3ef60405160405180910390a4505050565b600073ffffffffffffffffffffffffffffffffffffffff168273ffffffffffffffffffffffffffffffffffffffff161415612231576040517f08c379a000000000000000000000000000000000000000000000000000000000815260040161222890613eaf565b60405180910390fd5b61223a81611d5a565b1561227a576040517f08c379a000000000000000000000000000000000000000000000000000000000815260040161227190613d6f565b60405180910390fd5b61228660008383612856565b6001600360008473ffffffffffffffffffffffffffffffffffffffff1673ffffffffffffffffffffffffffffffffffffffff16815260200190815260200160002060008282546122d69190614153565b92505081905550816002600083815260200190815260200160002060006101000a81548173ffffffffffffffffffffffffffffffffffffffff021916908373ffffffffffffffffffffffffffffffffffffffff160217905550808273ffffffffffffffffffffffffffffffffffffffff16600073ffffffffffffffffffffffffffffffffffffffff167fddf252ad1be2c89b69c2b068fc378daa952ba7f163c4a11628f55a4df523b3ef60405160405180910390a45050565b606060008214156123d7576040518060400160405280600181526020017f30000000000000000000000000000000000000000000000000000000000000008152509050612537565b600082905060005b600082146124095780806123f29061436c565b915050600a8261240291906141a9565b91506123df565b60008167ffffffffffffffff81111561244b577f4e487b7100000000000000000000000000000000000000000000000000000000600052604160045260246000fd5b6040519080825280601f01601f19166020018201604052801561247d5781602001600182028036833780820191505090505b5090505b60008514612530576001826124969190614234565b9150600a856124a591906143e3565b60306124b19190614153565b60f81b8183815181106124ed577f4e487b7100000000000000000000000000000000000000000000000000000000600052603260045260246000fd5b60200101907effffffffffffffffffffffffffffffffffffffffffffffffffffffffffffff1916908160001a905350600a8561252991906141a9565b9450612481565b8093505050505b919050565b61254582611d5a565b612584576040517f08c379a000000000000000000000000000000000000000000000000000000000815260040161257b90613e8f565b60405180910390fd5b806006600084815260200190815260200160002090805190602001906125ab929190612ade565b505050565b6000826125bd858461285b565b1490509392505050565b6000600760009054906101000a900473ffffffffffffffffffffffffffffffffffffffff16905081600760006101000a81548173ffffffffffffffffffffffffffffffffffffffff021916908373ffffffffffffffffffffffffffffffffffffffff1602179055508173ffffffffffffffffffffffffffffffffffffffff168173ffffffffffffffffffffffffffffffffffffffff167f8be0079c531659141344cd1fd0a4f28419497f9722a3daafe3b4186f6b6457e060405160405180910390a35050565b8173ffffffffffffffffffffffffffffffffffffffff168373ffffffffffffffffffffffffffffffffffffffff1614156126fc576040517f08c379a00000000000000000000000000000000000000000000000000000000081526004016126f390613daf565b60405180910390fd5b80600560008573ffffffffffffffffffffffffffffffffffffffff1673ffffffffffffffffffffffffffffffffffffffff16815260200190815260200160002060008473ffffffffffffffffffffffffffffffffffffffff1673ffffffffffffffffffffffffffffffffffffffff16815260200190815260200160002060006101000a81548160ff0219169083151502179055508173ffffffffffffffffffffffffffffffffffffffff168373ffffffffffffffffffffffffffffffffffffffff167f17307eab39ab6107e8899845ad3d59bd9653f200f220920489ca2b5937696c31836040516127ed9190613cd7565b60405180910390a3505050565b612805848484611f65565b61281184848484612934565b612850576040517f08c379a000000000000000000000000000000000000000000000000000000000815260040161284790613d2f565b60405180910390fd5b50505050565b505050565b60008082905060005b84518110156129295760008582815181106128a8577f4e487b7100000000000000000000000000000000000000000000000000000000600052603260045260246000fd5b602002602001015190508083116128e95782816040516020016128cc929190613bec565b604051602081830303815290604052805190602001209250612915565b80836040516020016128fc929190613bec565b6040516020818303038152906040528051906020012092505b5080806129219061436c565b915050612864565b508091505092915050565b60006129558473ffffffffffffffffffffffffffffffffffffffff16612acb565b15612abe578373ffffffffffffffffffffffffffffffffffffffff1663150b7a0261297e611dc6565b8786866040518563ffffffff1660e01b81526004016129a09493929190613c62565b602060405180830381600087803b1580156129ba57600080fd5b505af19250505080156129eb57506040513d601f19601f820116820180604052508101906129e89190612fe8565b60015b612a6e573d8060008114612a1b576040519150601f19603f3d011682016040523d82523d6000602084013e612a20565b606091505b50600081511415612a66576040517f08c379a0000000000000000000000000000000000000000000000000000000008152600401612a5d90613d2f565b60405180910390fd5b805181602001fd5b63150b7a0260e01b7bffffffffffffffffffffffffffffffffffffffffffffffffffffffff1916817bffffffffffffffffffffffffffffffffffffffffffffffffffffffff191614915050612ac3565b600190505b949350505050565b600080823b905060008111915050919050565b828054612aea9061433a565b90600052602060002090601f016020900481019282612b0c5760008555612b53565b82601f10612b2557805160ff1916838001178555612b53565b82800160010185558215612b53579182015b82811115612b52578251825591602001919060010190612b37565b5b509050612b609190612b64565b5090565b5b80821115612b7d576000816000905550600101612b65565b5090565b6000612b94612b8f8461409b565b61406a565b905082815260208101848484011115612bac57600080fd5b612bb78482856142f8565b509392505050565b6000612bd2612bcd846140cb565b61406a565b905082815260208101848484011115612bea57600080fd5b612bf58482856142f8565b509392505050565b600081359050612c0c816144ee565b92915050565b60008083601f840112612c2457600080fd5b8235905067ffffffffffffffff811115612c3d57600080fd5b602083019150836020820283011115612c5557600080fd5b9250929050565b600081359050612c6b81614505565b92915050565b600081519050612c8081614505565b92915050565b600081359050612c958161451c565b92915050565b600081359050612caa81614533565b92915050565b600081519050612cbf81614533565b92915050565b600082601f830112612cd657600080fd5b8135612ce6848260208601612b81565b91505092915050565b600081359050612cfe8161454a565b92915050565b600082601f830112612d1557600080fd5b8135612d25848260208601612bbf565b91505092915050565b600081359050612d3d81614561565b92915050565b600081519050612d5281614561565b92915050565b600060208284031215612d6a57600080fd5b6000612d7884828501612bfd565b91505092915050565b60008060408385031215612d9457600080fd5b6000612da285828601612bfd565b9250506020612db385828601612bfd565b9150509250929050565b600080600060608486031215612dd257600080fd5b6000612de086828701612bfd565b9350506020612df186828701612bfd565b9250506040612e0286828701612d2e565b9150509250925092565b60008060008060808587031215612e2257600080fd5b6000612e3087828801612bfd565b9450506020612e4187828801612bfd565b9350506040612e5287828801612d2e565b925050606085013567ffffffffffffffff811115612e6f57600080fd5b612e7b87828801612cc5565b91505092959194509250565b60008060408385031215612e9a57600080fd5b6000612ea885828601612bfd565b9250506020612eb985828601612c5c565b9150509250929050565b60008060408385031215612ed657600080fd5b6000612ee485828601612bfd565b9250506020612ef585828601612d2e565b9150509250929050565b60008060208385031215612f1257600080fd5b600083013567ffffffffffffffff811115612f2c57600080fd5b612f3885828601612c12565b92509250509250929050565b600060208284031215612f5657600080fd5b6000612f6484828501612c5c565b91505092915050565b600060208284031215612f7f57600080fd5b6000612f8d84828501612c71565b91505092915050565b600060208284031215612fa857600080fd5b6000612fb684828501612c86565b91505092915050565b600060208284031215612fd157600080fd5b6000612fdf84828501612c9b565b91505092915050565b600060208284031215612ffa57600080fd5b600061300884828501612cb0565b91505092915050565b60006020828403121561302357600080fd5b600061303184828501612cef565b91505092915050565b60006020828403121561304c57600080fd5b600082013567ffffffffffffffff81111561306657600080fd5b61307284828501612d04565b91505092915050565b60006020828403121561308d57600080fd5b600061309b84828501612d2e565b91505092915050565b6000602082840312156130b657600080fd5b60006130c484828501612d43565b91505092915050565b6130d681614268565b82525050565b6130ed6130e882614268565b6143b5565b82525050565b6130fc8161427a565b82525050565b61310b81614286565b82525050565b61312261311d82614286565b6143c7565b82525050565b600061313382614110565b61313d8185614126565b935061314d818560208601614307565b613156816144d0565b840191505092915050565b600061316c8261411b565b6131768185614137565b9350613186818560208601614307565b61318f816144d0565b840191505092915050565b60006131a58261411b565b6131af8185614148565b93506131bf818560208601614307565b80840191505092915050565b600081546131d88161433a565b6131e28186614148565b945060018216600081146131fd576001811461320e57613241565b60ff19831686528186019350613241565b613217856140fb565b60005b838110156132395781548189015260018201915060208101905061321a565b838801955050505b50505092915050565b6000613257603283614137565b91507f4552433732313a207472616e7366657220746f206e6f6e20455243373231526560008301527f63656976657220696d706c656d656e74657200000000000000000000000000006020830152604082019050919050565b60006132bd602683614137565b91507f4f776e61626c653a206e6577206f776e657220697320746865207a65726f206160008301527f64647265737300000000000000000000000000000000000000000000000000006020830152604082019050919050565b6000613323601c83614137565b91507f4552433732313a20746f6b656e20616c7265616479206d696e746564000000006000830152602082019050919050565b6000613363602483614137565b91507f4552433732313a207472616e7366657220746f20746865207a65726f2061646460008301527f72657373000000000000000000000000000000000000000000000000000000006020830152604082019050919050565b60006133c9601983614137565b91507f4552433732313a20617070726f766520746f2063616c6c6572000000000000006000830152602082019050919050565b6000613409602c83614137565b91507f4552433732313a206f70657261746f7220717565727920666f72206e6f6e657860008301527f697374656e7420746f6b656e00000000000000000000000000000000000000006020830152604082019050919050565b600061346f603883614137565b91507f4552433732313a20617070726f76652063616c6c6572206973206e6f74206f7760008301527f6e6572206e6f7220617070726f76656420666f7220616c6c00000000000000006020830152604082019050919050565b60006134d5604283614137565b91507f4572726f723a20596f7520617265206e6f7420616c6c6f77656420746f206d6960008301527f6e7420756e74696c20746865206f776e657220737461727473204d696e74696e60208301527f67210000000000000000000000000000000000000000000000000000000000006040830152606082019050919050565b6000613561602383614137565b91507f4572726f723a2053656e74204554482076616c756520697320494e434f52524560008301527f43542100000000000000000000000000000000000000000000000000000000006020830152604082019050919050565b60006135c7602a83614137565b91507f4552433732313a2062616c616e636520717565727920666f7220746865207a6560008301527f726f2061646472657373000000000000000000000000000000000000000000006020830152604082019050919050565b600061362d602983614137565b91507f4552433732313a206f776e657220717565727920666f72206e6f6e657869737460008301527f656e7420746f6b656e00000000000000000000000000000000000000000000006020830152604082019050919050565b6000613693602e83614137565b91507f45524337323155524953746f726167653a2055524920736574206f66206e6f6e60008301527f6578697374656e7420746f6b656e0000000000000000000000000000000000006020830152604082019050919050565b60006136f9602083614137565b91507f4552433732313a206d696e7420746f20746865207a65726f20616464726573736000830152602082019050919050565b6000613739602c83614137565b91507f4552433732313a20617070726f76656420717565727920666f72206e6f6e657860008301527f697374656e7420746f6b656e00000000000000000000000000000000000000006020830152604082019050919050565b600061379f600583614148565b91507f2e6a736f6e0000000000000000000000000000000000000000000000000000006000830152600582019050919050565b60006137df602083614137565b91507f4f776e61626c653a2063616c6c6572206973206e6f7420746865206f776e65726000830152602082019050919050565b600061381f602683614137565b91507f4572726f723a2041646472657373206973204e4f542077686974656c6973746560008301527f64207965742100000000000000000000000000000000000000000000000000006020830152604082019050919050565b6000613885602983614137565b91507f4552433732313a207472616e73666572206f6620746f6b656e2074686174206960008301527f73206e6f74206f776e00000000000000000000000000000000000000000000006020830152604082019050919050565b60006138eb602c83614137565b91507f4572726f723a204e465420697320616c726561647920636c61696d656420627960008301527f20746869732077616c6c657400000000000000000000000000000000000000006020830152604082019050919050565b6000613951602183614137565b91507f4552433732313a20617070726f76616c20746f2063757272656e74206f776e6560008301527f72000000000000000000000000000000000000000000000000000000000000006020830152604082019050919050565b60006139b7603183614137565b91507f4552433732313a207472616e736665722063616c6c6572206973206e6f74206f60008301527f776e6572206e6f7220617070726f7665640000000000000000000000000000006020830152604082019050919050565b6000613a1d602f83614137565b91507f4572726f723a20416c7265616479206d696e746564206d6178696d756d206e7560008301527f6d626572206f6620746f6b656e732100000000000000000000000000000000006020830152604082019050919050565b6000613a83601c83614137565b91507f4572726f723a20546f6b656e20646f6573206e6f7420657869737421000000006000830152602082019050919050565b6000613ac3603783614137565b91507f4572726f723a20596f752063616e206d696e74206f6e6c79203520746f6b656e60008301527f73206d6178696d756d20706572207075726368617365210000000000000000006020830152604082019050919050565b6000613b29602b83614137565b91507f4572726f723a204e6f7420656e6f75676820746f6b656e732072656d61696e6960008301527f6e6720746f206d696e74210000000000000000000000000000000000000000006020830152604082019050919050565b6000613b8f601f83614137565b91507f5265656e7472616e637947756172643a207265656e7472616e742063616c6c006000830152602082019050919050565b613bcb816142ee565b82525050565b6000613bdd82846130dc565b60148201915081905092915050565b6000613bf88285613111565b602082019150613c088284613111565b6020820191508190509392505050565b6000613c2482856131cb565b9150613c30828461319a565b9150613c3b82613792565b91508190509392505050565b6000602082019050613c5c60008301846130cd565b92915050565b6000608082019050613c7760008301876130cd565b613c8460208301866130cd565b613c916040830185613bc2565b8181036060830152613ca38184613128565b905095945050505050565b6000604082019050613cc360008301856130cd565b613cd06020830184613bc2565b9392505050565b6000602082019050613cec60008301846130f3565b92915050565b6000602082019050613d076000830184613102565b92915050565b60006020820190508181036000830152613d278184613161565b905092915050565b60006020820190508181036000830152613d488161324a565b9050919050565b60006020820190508181036000830152613d68816132b0565b9050919050565b60006020820190508181036000830152613d8881613316565b9050919050565b60006020820190508181036000830152613da881613356565b9050919050565b60006020820190508181036000830152613dc8816133bc565b9050919050565b60006020820190508181036000830152613de8816133fc565b9050919050565b60006020820190508181036000830152613e0881613462565b9050919050565b60006020820190508181036000830152613e28816134c8565b9050919050565b60006020820190508181036000830152613e4881613554565b9050919050565b60006020820190508181036000830152613e68816135ba565b9050919050565b60006020820190508181036000830152613e8881613620565b9050919050565b60006020820190508181036000830152613ea881613686565b9050919050565b60006020820190508181036000830152613ec8816136ec565b9050919050565b60006020820190508181036000830152613ee88161372c565b9050919050565b60006020820190508181036000830152613f08816137d2565b9050919050565b60006020820190508181036000830152613f2881613812565b9050919050565b60006020820190508181036000830152613f4881613878565b9050919050565b60006020820190508181036000830152613f68816138de565b9050919050565b60006020820190508181036000830152613f8881613944565b9050919050565b60006020820190508181036000830152613fa8816139aa565b9050919050565b60006020820190508181036000830152613fc881613a10565b9050919050565b60006020820190508181036000830152613fe881613a76565b9050919050565b6000602082019050818103600083015261400881613ab6565b9050919050565b6000602082019050818103600083015261402881613b1c565b9050919050565b6000602082019050818103600083015261404881613b82565b9050919050565b60006020820190506140646000830184613bc2565b92915050565b6000604051905081810181811067ffffffffffffffff82111715614091576140906144a1565b5b8060405250919050565b600067ffffffffffffffff8211156140b6576140b56144a1565b5b601f19601f8301169050602081019050919050565b600067ffffffffffffffff8211156140e6576140e56144a1565b5b601f19601f8301169050602081019050919050565b60008190508160005260206000209050919050565b600081519050919050565b600081519050919050565b600082825260208201905092915050565b600082825260208201905092915050565b600081905092915050565b600061415e826142ee565b9150614169836142ee565b9250827fffffffffffffffffffffffffffffffffffffffffffffffffffffffffffffffff0382111561419e5761419d614414565b5b828201905092915050565b60006141b4826142ee565b91506141bf836142ee565b9250826141cf576141ce614443565b5b828204905092915050565b60006141e5826142ee565b91506141f0836142ee565b9250817fffffffffffffffffffffffffffffffffffffffffffffffffffffffffffffffff048311821515161561422957614228614414565b5b828202905092915050565b600061423f826142ee565b915061424a836142ee565b92508282101561425d5761425c614414565b5b828203905092915050565b6000614273826142ce565b9050919050565b60008115159050919050565b6000819050919050565b60007fffffffff0000000000000000000000000000000000000000000000000000000082169050919050565b60006142c782614268565b9050919050565b600073ffffffffffffffffffffffffffffffffffffffff82169050919050565b6000819050919050565b82818337600083830152505050565b60005b8381101561432557808201518184015260208101905061430a565b83811115614334576000848401525b50505050565b6000600282049050600182168061435257607f821691505b6020821081141561436657614365614472565b5b50919050565b6000614377826142ee565b91507fffffffffffffffffffffffffffffffffffffffffffffffffffffffffffffffff8214156143aa576143a9614414565b5b600182019050919050565b60006143c0826143d1565b9050919050565b6000819050919050565b60006143dc826144e1565b9050919050565b60006143ee826142ee565b91506143f9836142ee565b92508261440957614408614443565b5b828206905092915050565b7f4e487b7100000000000000000000000000000000000000000000000000000000600052601160045260246000fd5b7f4e487b7100000000000000000000000000000000000000000000000000000000600052601260045260246000fd5b7f4e487b7100000000000000000000000000000000000000000000000000000000600052602260045260246000fd5b7f4e487b7100000000000000000000000000000000000000000000000000000000600052604160045260246000fd5b6000601f19601f8301169050919050565b60008160601b9050919050565b6144f781614268565b811461450257600080fd5b50565b61450e8161427a565b811461451957600080fd5b50565b61452581614286565b811461453057600080fd5b50565b61453c81614290565b811461454757600080fd5b50565b614553816142bc565b811461455e57600080fd5b50565b61456a816142ee565b811461457557600080fd5b5056fea26469706673582212208c37542672caddedff96cec7980fd62e3e351409cc4a9fbef004de559732e22664736f6c63430008000033",
  "linkReferences": {},
  "deployedLinkReferences": {}
}