{
  "_format": "hh-sol-artifact-1",
  "contractName": "BloomGameAirdropping",
  "sourceName": "contracts/BloomGameAirdropping.sol",
  "abi": [
    {
      "inputs": [],
      "stateMutability": "nonpayable",
      "type": "constructor"
    },
    {
      "anonymous": false,
      "inputs": [
        {
          "indexed": true,
          "internalType": "address",
          "name": "previousOwner",
          "type": "address"
        },
        {
          "indexed": true,
          "internalType": "address",
          "name": "newOwner",
          "type": "address"
        }
      ],
      "name": "OwnershipTransferred",
      "type": "event"
    },
    {
      "inputs": [
        {
          "internalType": "address",
          "name": "",
          "type": "address"
        },
        {
          "internalType": "address",
          "name": "",
          "type": "address"
        }
      ],
      "name": "airdropCanceled",
      "outputs": [
        {
          "internalType": "bool",
          "name": "",
          "type": "bool"
        }
      ],
      "stateMutability": "view",
      "type": "function"
    },
    {
      "inputs": [
        {
          "internalType": "address",
          "name": "",
          "type": "address"
        },
        {
          "internalType": "address",
          "name": "",
          "type": "address"
        },
        {
          "internalType": "uint256",
          "name": "",
          "type": "uint256"
        }
      ],
      "name": "airdropDone",
      "outputs": [
        {
          "internalType": "bool",
          "name": "",
          "type": "bool"
        }
      ],
      "stateMutability": "view",
      "type": "function"
    },
    {
      "inputs": [],
      "name": "airdropTypeHash",
      "outputs": [
        {
          "internalType": "bytes32",
          "name": "",
          "type": "bytes32"
        }
      ],
      "stateMutability": "view",
      "type": "function"
    },
    {
      "inputs": [
        {
          "internalType": "address",
          "name": "tokenAddress",
          "type": "address"
        }
      ],
      "name": "cancel",
      "outputs": [],
      "stateMutability": "nonpayable",
      "type": "function"
    },
    {
      "inputs": [
        {
          "internalType": "address",
          "name": "tokenAddress",
          "type": "address"
        },
        {
          "internalType": "address[]",
          "name": "receivers",
          "type": "address[]"
        },
        {
          "internalType": "uint256[]",
          "name": "tokenIds",
          "type": "uint256[]"
        },
        {
          "internalType": "uint256",
          "name": "index",
          "type": "uint256"
        },
        {
          "internalType": "uint8",
          "name": "v",
          "type": "uint8"
        },
        {
          "internalType": "bytes32",
          "name": "r",
          "type": "bytes32"
        },
        {
          "internalType": "bytes32",
          "name": "s",
          "type": "bytes32"
        }
      ],
      "name": "claim",
      "outputs": [],
      "stateMutability": "nonpayable",
      "type": "function"
    },
    {
      "inputs": [],
      "name": "kill",
      "outputs": [],
      "stateMutability": "nonpayable",
      "type": "function"
    },
    {
      "inputs": [],
      "name": "owner",
      "outputs": [
        {
          "internalType": "address",
          "name": "",
          "type": "address"
        }
      ],
      "stateMutability": "view",
      "type": "function"
    },
    {
      "inputs": [],
      "name": "paused",
      "outputs": [
        {
          "internalType": "bool",
          "name": "",
          "type": "bool"
        }
      ],
      "stateMutability": "view",
      "type": "function"
    },
    {
      "inputs": [],
      "name": "renounceOwnership",
      "outputs": [],
      "stateMutability": "nonpayable",
      "type": "function"
    },
    {
      "inputs": [
        {
          "internalType": "bool",
          "name": "value",
          "type": "bool"
        }
      ],
      "name": "setPausedTo",
      "outputs": [],
      "stateMutability": "nonpayable",
      "type": "function"
    },
    {
      "inputs": [
        {
          "internalType": "address",
          "name": "newOwner",
          "type": "address"
        }
      ],
      "name": "transferOwnership",
      "outputs": [],
      "stateMutability": "nonpayable",
      "type": "function"
    }
  ],
  "bytecode": "0x608060405234801561001057600080fd5b5061002d61002261003260201b60201c565b61003a60201b60201c565b6100fe565b600033905090565b60008060009054906101000a900473ffffffffffffffffffffffffffffffffffffffff169050816000806101000a81548173ffffffffffffffffffffffffffffffffffffffff021916908373ffffffffffffffffffffffffffffffffffffffff1602179055508173ffffffffffffffffffffffffffffffffffffffff168173ffffffffffffffffffffffffffffffffffffffff167f8be0079c531659141344cd1fd0a4f28419497f9722a3daafe3b4186f6b6457e060405160405180910390a35050565b61186f8061010d6000396000f3fe608060405234801561001057600080fd5b50600436106100a95760003560e01c8063715018a611610071578063715018a61461013e5780638da5cb5b146101485780639f68629714610166578063db6679a214610184578063f1a168a9146101a0578063f2fde38b146101d0576100a9565b806339406905146100ae57806341c0e1b5146100de5780634c33fe94146100e85780635908d6ee146101045780635c975abb14610120575b600080fd5b6100c860048036038101906100c39190610e4b565b6101ec565b6040516100d591906113f8565b60405180910390f35b6100e6610228565b005b61010260048036038101906100fd9190610de6565b6102bd565b005b61011e60048036038101906101199190610f68565b610355565b005b6101286103ee565b60405161013591906113f8565b60405180910390f35b610146610401565b005b610150610489565b60405161015d91906113a6565b60405180910390f35b61016e6104b2565b60405161017b9190611413565b60405180910390f35b61019e60048036038101906101999190610e9a565b6104f4565b005b6101ba60048036038101906101b59190610e0f565b610976565b6040516101c791906113f8565b60405180910390f35b6101ea60048036038101906101e59190610de6565b6109a5565b005b6001602052826000526040600020602052816000526040600020602052806000526040600020600092509250509054906101000a900460ff1681565b610230610a9d565b73ffffffffffffffffffffffffffffffffffffffff1661024e610489565b73ffffffffffffffffffffffffffffffffffffffff16146102a4576040517f08c379a000000000000000000000000000000000000000000000000000000000815260040161029b90611558565b60405180910390fd5b3373ffffffffffffffffffffffffffffffffffffffff16ff5b6001600260003373ffffffffffffffffffffffffffffffffffffffff1673ffffffffffffffffffffffffffffffffffffffff16815260200190815260200160002060008373ffffffffffffffffffffffffffffffffffffffff1673ffffffffffffffffffffffffffffffffffffffff16815260200190815260200160002060006101000a81548160ff02191690831515021790555050565b61035d610a9d565b73ffffffffffffffffffffffffffffffffffffffff1661037b610489565b73ffffffffffffffffffffffffffffffffffffffff16146103d1576040517f08c379a00000000000000000000000000000000000000000000000000000000081526004016103c890611558565b60405180910390fd5b80600360006101000a81548160ff02191690831515021790555050565b600360009054906101000a900460ff1681565b610409610a9d565b73ffffffffffffffffffffffffffffffffffffffff16610427610489565b73ffffffffffffffffffffffffffffffffffffffff161461047d576040517f08c379a000000000000000000000000000000000000000000000000000000000815260040161047490611558565b60405180910390fd5b6104876000610aa5565b565b60008060009054906101000a900473ffffffffffffffffffffffffffffffffffffffff16905090565b6040518060800160405280604681526020016117f4604691396040516020016104db919061138f565b6040516020818303038152906040528051906020012081565b60001515600360009054906101000a900460ff1615151461054a576040517f08c379a000000000000000000000000000000000000000000000000000000000815260040161054190611538565b60405180910390fd5b60006001610559898989610b69565b858585604051600081526020016040526040516105799493929190611473565b6020604051602081039080840390855afa15801561059b573d6000803e3d6000fd5b50505060206040510351905060008686815181106105e2577f4e487b7100000000000000000000000000000000000000000000000000000000600052603260045260246000fd5b602002602001015190506000888781518110610627577f4e487b7100000000000000000000000000000000000000000000000000000000600052603260045260246000fd5b602002602001015190503373ffffffffffffffffffffffffffffffffffffffff168173ffffffffffffffffffffffffffffffffffffffff161461069f576040517f08c379a0000000000000000000000000000000000000000000000000000000008152600401610696906114b8565b60405180910390fd5b60001515600160008373ffffffffffffffffffffffffffffffffffffffff1673ffffffffffffffffffffffffffffffffffffffff16815260200190815260200160002060008c73ffffffffffffffffffffffffffffffffffffffff1673ffffffffffffffffffffffffffffffffffffffff168152602001908152602001600020600084815260200190815260200160002060009054906101000a900460ff16151514610780576040517f08c379a000000000000000000000000000000000000000000000000000000000815260040161077790611518565b60405180910390fd5b60018060008373ffffffffffffffffffffffffffffffffffffffff1673ffffffffffffffffffffffffffffffffffffffff16815260200190815260200160002060008c73ffffffffffffffffffffffffffffffffffffffff1673ffffffffffffffffffffffffffffffffffffffff168152602001908152602001600020600084815260200190815260200160002060006101000a81548160ff02191690831515021790555060001515600260008573ffffffffffffffffffffffffffffffffffffffff1673ffffffffffffffffffffffffffffffffffffffff16815260200190815260200160002060008c73ffffffffffffffffffffffffffffffffffffffff1673ffffffffffffffffffffffffffffffffffffffff16815260200190815260200160002060009054906101000a900460ff161515146108f5576040517f08c379a00000000000000000000000000000000000000000000000000000000081526004016108ec906114f8565b60405180910390fd5b60008a90508073ffffffffffffffffffffffffffffffffffffffff166342842e0e8584866040518463ffffffff1660e01b8152600401610937939291906113c1565b600060405180830381600087803b15801561095157600080fd5b505af1158015610965573d6000803e3d6000fd5b505050505050505050505050505050565b60026020528160005260406000206020528060005260406000206000915091509054906101000a900460ff1681565b6109ad610a9d565b73ffffffffffffffffffffffffffffffffffffffff166109cb610489565b73ffffffffffffffffffffffffffffffffffffffff1614610a21576040517f08c379a0000000000000000000000000000000000000000000000000000000008152600401610a1890611558565b60405180910390fd5b600073ffffffffffffffffffffffffffffffffffffffff168173ffffffffffffffffffffffffffffffffffffffff161415610a91576040517f08c379a0000000000000000000000000000000000000000000000000000000008152600401610a88906114d8565b60405180910390fd5b610a9a81610aa5565b50565b600033905090565b60008060009054906101000a900473ffffffffffffffffffffffffffffffffffffffff169050816000806101000a81548173ffffffffffffffffffffffffffffffffffffffff021916908373ffffffffffffffffffffffffffffffffffffffff1602179055508173ffffffffffffffffffffffffffffffffffffffff168173ffffffffffffffffffffffffffffffffffffffff167f8be0079c531659141344cd1fd0a4f28419497f9722a3daafe3b4186f6b6457e060405160405180910390a35050565b60006040518060800160405280604681526020016117f460469139604051602001610b94919061138f565b6040516020818303038152906040528051906020012084604051602001610bbb9190611346565b6040516020818303038152906040528051906020012084604051602001610be29190611361565b6040516020818303038152906040528051906020012084604051602001610c099190611378565b60405160208183030381529060405280519060200120604051602001610c32949392919061142e565b6040516020818303038152906040528051906020012090509392505050565b6000610c64610c5f846115a9565b611578565b90508083825260208201905082856020860282011115610c8357600080fd5b60005b85811015610cb35781610c998882610d29565b845260208401935060208301925050600181019050610c86565b5050509392505050565b6000610cd0610ccb846115d5565b611578565b90508083825260208201905082856020860282011115610cef57600080fd5b60005b85811015610d1f5781610d058882610dbc565b845260208401935060208301925050600181019050610cf2565b5050509392505050565b600081359050610d3881611780565b92915050565b600082601f830112610d4f57600080fd5b8135610d5f848260208601610c51565b91505092915050565b600082601f830112610d7957600080fd5b8135610d89848260208601610cbd565b91505092915050565b600081359050610da181611797565b92915050565b600081359050610db6816117ae565b92915050565b600081359050610dcb816117c5565b92915050565b600081359050610de0816117dc565b92915050565b600060208284031215610df857600080fd5b6000610e0684828501610d29565b91505092915050565b60008060408385031215610e2257600080fd5b6000610e3085828601610d29565b9250506020610e4185828601610d29565b9150509250929050565b600080600060608486031215610e6057600080fd5b6000610e6e86828701610d29565b9350506020610e7f86828701610d29565b9250506040610e9086828701610dbc565b9150509250925092565b600080600080600080600060e0888a031215610eb557600080fd5b6000610ec38a828b01610d29565b975050602088013567ffffffffffffffff811115610ee057600080fd5b610eec8a828b01610d3e565b965050604088013567ffffffffffffffff811115610f0957600080fd5b610f158a828b01610d68565b9550506060610f268a828b01610dbc565b9450506080610f378a828b01610dd1565b93505060a0610f488a828b01610da7565b92505060c0610f598a828b01610da7565b91505092959891949750929550565b600060208284031215610f7a57600080fd5b6000610f8884828501610d92565b91505092915050565b6000610f9d8383610fd0565b60208301905092915050565b6000610fb58383611328565b60208301905092915050565b610fca8161168e565b82525050565b610fd98161168e565b82525050565b610ff0610feb8261168e565b611720565b82525050565b600061100182611621565b61100b818561165c565b935061101683611601565b8060005b8381101561104757815161102e8882610f91565b975061103983611642565b92505060018101905061101a565b5085935050505092915050565b600061105f8261162c565b6110698185611667565b935061107483611611565b8060005b838110156110a557815161108c8882610fa9565b97506110978361164f565b925050600181019050611078565b5085935050505092915050565b6110bb816116a0565b82525050565b6110ca816116ac565b82525050565b60006110db82611637565b6110e58185611683565b93506110f58185602086016116ed565b80840191505092915050565b600061110e603783611672565b91507f4572726f723a20446566696e65642061697264726f702072656365697665722060008301527f6e6565647320746f206265206d73672e73656e646572210000000000000000006020830152604082019050919050565b6000611174602683611672565b91507f4f776e61626c653a206e6577206f776e657220697320746865207a65726f206160008301527f64647265737300000000000000000000000000000000000000000000000000006020830152604082019050919050565b60006111da602883611672565b91507f4572726f723a2053656e646572206861732063616e63656c656420746869732060008301527f61697264726f70210000000000000000000000000000000000000000000000006020830152604082019050919050565b6000611240603383611672565b91507f4572726f723a2052656365697665722068617320616c7265616479207265747260008301527f696576656420746869732061697264726f7021000000000000000000000000006020830152604082019050919050565b60006112a6601b83611672565b91507f4572726f723a2041697264726f707320617265207061757365642100000000006000830152602082019050919050565b60006112e6602083611672565b91507f4f776e61626c653a2063616c6c6572206973206e6f7420746865206f776e65726000830152602082019050919050565b611322816116d6565b82525050565b611331816116d6565b82525050565b611340816116e0565b82525050565b60006113528284610fdf565b60148201915081905092915050565b600061136d8284610ff6565b915081905092915050565b60006113848284611054565b915081905092915050565b600061139b82846110d0565b915081905092915050565b60006020820190506113bb6000830184610fc1565b92915050565b60006060820190506113d66000830186610fc1565b6113e36020830185610fc1565b6113f06040830184611319565b949350505050565b600060208201905061140d60008301846110b2565b92915050565b600060208201905061142860008301846110c1565b92915050565b600060808201905061144360008301876110c1565b61145060208301866110c1565b61145d60408301856110c1565b61146a60608301846110c1565b95945050505050565b600060808201905061148860008301876110c1565b6114956020830186611337565b6114a260408301856110c1565b6114af60608301846110c1565b95945050505050565b600060208201905081810360008301526114d181611101565b9050919050565b600060208201905081810360008301526114f181611167565b9050919050565b60006020820190508181036000830152611511816111cd565b9050919050565b6000602082019050818103600083015261153181611233565b9050919050565b6000602082019050818103600083015261155181611299565b9050919050565b60006020820190508181036000830152611571816112d9565b9050919050565b6000604051905081810181811067ffffffffffffffff8211171561159f5761159e611744565b5b8060405250919050565b600067ffffffffffffffff8211156115c4576115c3611744565b5b602082029050602081019050919050565b600067ffffffffffffffff8211156115f0576115ef611744565b5b602082029050602081019050919050565b6000819050602082019050919050565b6000819050602082019050919050565b600081519050919050565b600081519050919050565b600081519050919050565b6000602082019050919050565b6000602082019050919050565b600081905092915050565b600081905092915050565b600082825260208201905092915050565b600081905092915050565b6000611699826116b6565b9050919050565b60008115159050919050565b6000819050919050565b600073ffffffffffffffffffffffffffffffffffffffff82169050919050565b6000819050919050565b600060ff82169050919050565b60005b8381101561170b5780820151818401526020810190506116f0565b8381111561171a576000848401525b50505050565b600061172b82611732565b9050919050565b600061173d82611773565b9050919050565b7f4e487b7100000000000000000000000000000000000000000000000000000000600052604160045260246000fd5b60008160601b9050919050565b6117898161168e565b811461179457600080fd5b50565b6117a0816116a0565b81146117ab57600080fd5b50565b6117b7816116ac565b81146117c257600080fd5b50565b6117ce816116d6565b81146117d957600080fd5b50565b6117e5816116e0565b81146117f057600080fd5b5056fe41697264726f70286164647265737320746f6b656e416464726573732c20616464726573735b5d207265636569766572732c2075696e743235365b5d20746f6b656e49647329a2646970667358221220b4f8d0d9016ec63fc77302cd50a082f4dbfc0077c2132c63fdfd1ddb78e4ab3064736f6c63430008000033",
  "linkReferences": {},
  "deployedLinkReferences": {}
}